{
	"contracts/fallback_examplle.sol": {
		"FallbackExample": {
			"abi": [
				{
					"inputs": [],
					"stateMutability": "nonpayable",
					"type": "constructor"
				},
				{
					"stateMutability": "payable",
					"type": "fallback"
				},
				{
					"inputs": [
						{
							"internalType": "address",
							"name": "",
							"type": "address"
						}
					],
					"name": "balanceReceived",
					"outputs": [
						{
							"internalType": "uint256",
							"name": "",
							"type": "uint256"
						}
					],
					"stateMutability": "view",
					"type": "function"
				},
				{
					"inputs": [],
					"name": "getOwner",
					"outputs": [
						{
							"internalType": "address",
							"name": "",
							"type": "address"
						}
					],
					"stateMutability": "view",
					"type": "function"
				},
				{
					"inputs": [],
					"name": "owner",
					"outputs": [
						{
							"internalType": "address",
							"name": "",
							"type": "address"
						}
					],
					"stateMutability": "view",
					"type": "function"
				},
				{
					"inputs": [],
					"name": "receiveMoney",
					"outputs": [],
					"stateMutability": "payable",
					"type": "function"
				},
				{
					"inputs": [
						{
							"internalType": "address payable",
							"name": "_to",
							"type": "address"
						},
						{
							"internalType": "uint256",
							"name": "_amount",
							"type": "uint256"
						}
					],
					"name": "withdrawMoney",
					"outputs": [],
					"stateMutability": "nonpayable",
					"type": "function"
				}
			],
			"devdoc": {
				"kind": "dev",
				"methods": {},
				"version": 1
			},
			"evm": {
				"assembly": "    /* \"contracts/fallback_examplle.sol\":58:765  contract FallbackExample {... */\n  mstore(0x40, 0x80)\n    /* \"contracts/fallback_examplle.sol\":171:227  constructor() public {... */\n  callvalue\n  dup1\n  iszero\n  tag_1\n  jumpi\n  0x00\n  dup1\n  revert\ntag_1:\n  pop\n    /* \"contracts/fallback_examplle.sol\":210:220  msg.sender */\n  caller\n    /* \"contracts/fallback_examplle.sol\":202:207  owner */\n  0x01\n  0x00\n    /* \"contracts/fallback_examplle.sol\":202:220  owner = msg.sender */\n  0x0100\n  exp\n  dup2\n  sload\n  dup2\n  0xffffffffffffffffffffffffffffffffffffffff\n  mul\n  not\n  and\n  swap1\n  dup4\n  0xffffffffffffffffffffffffffffffffffffffff\n  and\n  mul\n  or\n  swap1\n  sstore\n  pop\n    /* \"contracts/fallback_examplle.sol\":58:765  contract FallbackExample {... */\n  dataSize(sub_0)\n  dup1\n  dataOffset(sub_0)\n  0x00\n  codecopy\n  0x00\n  return\nstop\n\nsub_0: assembly {\n        /* \"contracts/fallback_examplle.sol\":58:765  contract FallbackExample {... */\n      mstore(0x40, 0x80)\n      jumpi(tag_1, lt(calldatasize, 0x04))\n      shr(0xe0, calldataload(0x00))\n      dup1\n      0x6d26ec18\n      eq\n      tag_3\n      jumpi\n      dup1\n      0x893d20e8\n      eq\n      tag_4\n      jumpi\n      dup1\n      0x8da5cb5b\n      eq\n      tag_5\n      jumpi\n      dup1\n      0xd18a42e1\n      eq\n      tag_6\n      jumpi\n      dup1\n      0xf274c897\n      eq\n      tag_7\n      jumpi\n      jump(tag_2)\n    tag_1:\n    tag_2:\n        /* \"contracts/fallback_examplle.sol\":742:756  receiveMoney() */\n      tag_10\n        /* \"contracts/fallback_examplle.sol\":742:754  receiveMoney */\n      tag_11\n        /* \"contracts/fallback_examplle.sol\":742:756  receiveMoney() */\n      jump\t// in\n    tag_10:\n        /* \"contracts/fallback_examplle.sol\":58:765  contract FallbackExample {... */\n      stop\n        /* \"contracts/fallback_examplle.sol\":320:416  function receiveMoney() public payable {... */\n    tag_3:\n      tag_12\n      tag_11\n      jump\t// in\n    tag_12:\n      stop\n        /* \"contracts/fallback_examplle.sol\":234:314  function getOwner () public view  returns (address){... */\n    tag_4:\n      callvalue\n      dup1\n      iszero\n      tag_13\n      jumpi\n      0x00\n      dup1\n      revert\n    tag_13:\n      pop\n      tag_14\n      tag_15\n      jump\t// in\n    tag_14:\n      mload(0x40)\n      tag_16\n      swap2\n      swap1\n      tag_17\n      jump\t// in\n    tag_16:\n      mload(0x40)\n      dup1\n      swap2\n      sub\n      swap1\n      return\n        /* \"contracts/fallback_examplle.sol\":143:164  address public  owner */\n    tag_5:\n      callvalue\n      dup1\n      iszero\n      tag_18\n      jumpi\n      0x00\n      dup1\n      revert\n    tag_18:\n      pop\n      tag_19\n      tag_20\n      jump\t// in\n    tag_19:\n      mload(0x40)\n      tag_21\n      swap2\n      swap1\n      tag_17\n      jump\t// in\n    tag_21:\n      mload(0x40)\n      dup1\n      swap2\n      sub\n      swap1\n      return\n        /* \"contracts/fallback_examplle.sol\":89:136  mapping(address => uint) public balanceReceived */\n    tag_6:\n      callvalue\n      dup1\n      iszero\n      tag_22\n      jumpi\n      0x00\n      dup1\n      revert\n    tag_22:\n      pop\n      tag_23\n      0x04\n      dup1\n      calldatasize\n      sub\n      dup2\n      add\n      swap1\n      tag_24\n      swap2\n      swap1\n      tag_25\n      jump\t// in\n    tag_24:\n      tag_26\n      jump\t// in\n    tag_23:\n      mload(0x40)\n      tag_27\n      swap2\n      swap1\n      tag_28\n      jump\t// in\n    tag_27:\n      mload(0x40)\n      dup1\n      swap2\n      sub\n      swap1\n      return\n        /* \"contracts/fallback_examplle.sol\":422:698  function withdrawMoney(address payable _to, uint256 _amount) public {... */\n    tag_7:\n      callvalue\n      dup1\n      iszero\n      tag_29\n      jumpi\n      0x00\n      dup1\n      revert\n    tag_29:\n      pop\n      tag_30\n      0x04\n      dup1\n      calldatasize\n      sub\n      dup2\n      add\n      swap1\n      tag_31\n      swap2\n      swap1\n      tag_32\n      jump\t// in\n    tag_31:\n      tag_33\n      jump\t// in\n    tag_30:\n      stop\n        /* \"contracts/fallback_examplle.sol\":320:416  function receiveMoney() public payable {... */\n    tag_11:\n        /* \"contracts/fallback_examplle.sol\":400:409  msg.value */\n      callvalue\n        /* \"contracts/fallback_examplle.sol\":369:384  balanceReceived */\n      0x00\n        /* \"contracts/fallback_examplle.sol\":369:396  balanceReceived[msg.sender] */\n      dup1\n        /* \"contracts/fallback_examplle.sol\":385:395  msg.sender */\n      caller\n        /* \"contracts/fallback_examplle.sol\":369:396  balanceReceived[msg.sender] */\n      0xffffffffffffffffffffffffffffffffffffffff\n      and\n      0xffffffffffffffffffffffffffffffffffffffff\n      and\n      dup2\n      mstore\n      0x20\n      add\n      swap1\n      dup2\n      mstore\n      0x20\n      add\n      0x00\n      keccak256\n      0x00\n        /* \"contracts/fallback_examplle.sol\":369:409  balanceReceived[msg.sender] += msg.value */\n      dup3\n      dup3\n      sload\n      tag_35\n      swap2\n      swap1\n      tag_36\n      jump\t// in\n    tag_35:\n      swap3\n      pop\n      pop\n      dup2\n      swap1\n      sstore\n      pop\n        /* \"contracts/fallback_examplle.sol\":320:416  function receiveMoney() public payable {... */\n      jump\t// out\n        /* \"contracts/fallback_examplle.sol\":234:314  function getOwner () public view  returns (address){... */\n    tag_15:\n        /* \"contracts/fallback_examplle.sol\":277:284  address */\n      0x00\n        /* \"contracts/fallback_examplle.sol\":302:307  owner */\n      0x01\n      0x00\n      swap1\n      sload\n      swap1\n      0x0100\n      exp\n      swap1\n      div\n      0xffffffffffffffffffffffffffffffffffffffff\n      and\n        /* \"contracts/fallback_examplle.sol\":295:307  return owner */\n      swap1\n      pop\n        /* \"contracts/fallback_examplle.sol\":234:314  function getOwner () public view  returns (address){... */\n      swap1\n      jump\t// out\n        /* \"contracts/fallback_examplle.sol\":143:164  address public  owner */\n    tag_20:\n      0x01\n      0x00\n      swap1\n      sload\n      swap1\n      0x0100\n      exp\n      swap1\n      div\n      0xffffffffffffffffffffffffffffffffffffffff\n      and\n      dup2\n      jump\t// out\n        /* \"contracts/fallback_examplle.sol\":89:136  mapping(address => uint) public balanceReceived */\n    tag_26:\n      mstore(0x20, 0x00)\n      dup1\n      0x00\n      mstore\n      keccak256(0x00, 0x40)\n      0x00\n      swap2\n      pop\n      swap1\n      pop\n      sload\n      dup2\n      jump\t// out\n        /* \"contracts/fallback_examplle.sol\":422:698  function withdrawMoney(address payable _to, uint256 _amount) public {... */\n    tag_33:\n        /* \"contracts/fallback_examplle.sol\":539:546  _amount */\n      dup1\n        /* \"contracts/fallback_examplle.sol\":508:523  balanceReceived */\n      0x00\n        /* \"contracts/fallback_examplle.sol\":508:535  balanceReceived[msg.sender] */\n      dup1\n        /* \"contracts/fallback_examplle.sol\":524:534  msg.sender */\n      caller\n        /* \"contracts/fallback_examplle.sol\":508:535  balanceReceived[msg.sender] */\n      0xffffffffffffffffffffffffffffffffffffffff\n      and\n      0xffffffffffffffffffffffffffffffffffffffff\n      and\n      dup2\n      mstore\n      0x20\n      add\n      swap1\n      dup2\n      mstore\n      0x20\n      add\n      0x00\n      keccak256\n      sload\n        /* \"contracts/fallback_examplle.sol\":508:546  balanceReceived[msg.sender] >= _amount */\n      lt\n      iszero\n        /* \"contracts/fallback_examplle.sol\":500:568  require(balanceReceived[msg.sender] >= _amount, \" not enough funds\") */\n      tag_39\n      jumpi\n      mload(0x40)\n      0x08c379a000000000000000000000000000000000000000000000000000000000\n      dup2\n      mstore\n      0x04\n      add\n      tag_40\n      swap1\n      tag_41\n      jump\t// in\n    tag_40:\n      mload(0x40)\n      dup1\n      swap2\n      sub\n      swap1\n      revert\n    tag_39:\n        /* \"contracts/fallback_examplle.sol\":653:660  _amount */\n      dup1\n        /* \"contracts/fallback_examplle.sol\":622:637  balanceReceived */\n      0x00\n        /* \"contracts/fallback_examplle.sol\":622:649  balanceReceived[msg.sender] */\n      dup1\n        /* \"contracts/fallback_examplle.sol\":638:648  msg.sender */\n      caller\n        /* \"contracts/fallback_examplle.sol\":622:649  balanceReceived[msg.sender] */\n      0xffffffffffffffffffffffffffffffffffffffff\n      and\n      0xffffffffffffffffffffffffffffffffffffffff\n      and\n      dup2\n      mstore\n      0x20\n      add\n      swap1\n      dup2\n      mstore\n      0x20\n      add\n      0x00\n      keccak256\n      0x00\n        /* \"contracts/fallback_examplle.sol\":622:660  balanceReceived[msg.sender] -= _amount */\n      dup3\n      dup3\n      sload\n      tag_42\n      swap2\n      swap1\n      tag_43\n      jump\t// in\n    tag_42:\n      swap3\n      pop\n      pop\n      dup2\n      swap1\n      sstore\n      pop\n        /* \"contracts/fallback_examplle.sol\":670:673  _to */\n      dup2\n        /* \"contracts/fallback_examplle.sol\":670:682  _to.transfer */\n      0xffffffffffffffffffffffffffffffffffffffff\n      and\n        /* \"contracts/fallback_examplle.sol\":670:691  _to.transfer(_amount) */\n      0x08fc\n        /* \"contracts/fallback_examplle.sol\":683:690  _amount */\n      dup3\n        /* \"contracts/fallback_examplle.sol\":670:691  _to.transfer(_amount) */\n      swap1\n      dup2\n      iszero\n      mul\n      swap1\n      mload(0x40)\n      0x00\n      mload(0x40)\n      dup1\n      dup4\n      sub\n      dup2\n      dup6\n      dup9\n      dup9\n      call\n      swap4\n      pop\n      pop\n      pop\n      pop\n      iszero\n      dup1\n      iszero\n      tag_45\n      jumpi\n      returndatasize\n      0x00\n      dup1\n      returndatacopy\n      revert(0x00, returndatasize)\n    tag_45:\n      pop\n        /* \"contracts/fallback_examplle.sol\":422:698  function withdrawMoney(address payable _to, uint256 _amount) public {... */\n      pop\n      pop\n      jump\t// out\n        /* \"#utility.yul\":7:133   */\n    tag_46:\n        /* \"#utility.yul\":44:51   */\n      0x00\n        /* \"#utility.yul\":84:126   */\n      0xffffffffffffffffffffffffffffffffffffffff\n        /* \"#utility.yul\":77:82   */\n      dup3\n        /* \"#utility.yul\":73:127   */\n      and\n        /* \"#utility.yul\":62:127   */\n      swap1\n      pop\n        /* \"#utility.yul\":7:133   */\n      swap2\n      swap1\n      pop\n      jump\t// out\n        /* \"#utility.yul\":139:235   */\n    tag_47:\n        /* \"#utility.yul\":176:183   */\n      0x00\n        /* \"#utility.yul\":205:229   */\n      tag_68\n        /* \"#utility.yul\":223:228   */\n      dup3\n        /* \"#utility.yul\":205:229   */\n      tag_46\n      jump\t// in\n    tag_68:\n        /* \"#utility.yul\":194:229   */\n      swap1\n      pop\n        /* \"#utility.yul\":139:235   */\n      swap2\n      swap1\n      pop\n      jump\t// out\n        /* \"#utility.yul\":241:359   */\n    tag_48:\n        /* \"#utility.yul\":328:352   */\n      tag_70\n        /* \"#utility.yul\":346:351   */\n      dup2\n        /* \"#utility.yul\":328:352   */\n      tag_47\n      jump\t// in\n    tag_70:\n        /* \"#utility.yul\":323:326   */\n      dup3\n        /* \"#utility.yul\":316:353   */\n      mstore\n        /* \"#utility.yul\":241:359   */\n      pop\n      pop\n      jump\t// out\n        /* \"#utility.yul\":365:587   */\n    tag_17:\n        /* \"#utility.yul\":458:462   */\n      0x00\n        /* \"#utility.yul\":496:498   */\n      0x20\n        /* \"#utility.yul\":485:494   */\n      dup3\n        /* \"#utility.yul\":481:499   */\n      add\n        /* \"#utility.yul\":473:499   */\n      swap1\n      pop\n        /* \"#utility.yul\":509:580   */\n      tag_72\n        /* \"#utility.yul\":577:578   */\n      0x00\n        /* \"#utility.yul\":566:575   */\n      dup4\n        /* \"#utility.yul\":562:579   */\n      add\n        /* \"#utility.yul\":553:559   */\n      dup5\n        /* \"#utility.yul\":509:580   */\n      tag_48\n      jump\t// in\n    tag_72:\n        /* \"#utility.yul\":365:587   */\n      swap3\n      swap2\n      pop\n      pop\n      jump\t// out\n        /* \"#utility.yul\":674:791   */\n    tag_50:\n        /* \"#utility.yul\":783:784   */\n      0x00\n        /* \"#utility.yul\":780:781   */\n      dup1\n        /* \"#utility.yul\":773:785   */\n      revert\n        /* \"#utility.yul\":920:1042   */\n    tag_52:\n        /* \"#utility.yul\":993:1017   */\n      tag_77\n        /* \"#utility.yul\":1011:1016   */\n      dup2\n        /* \"#utility.yul\":993:1017   */\n      tag_47\n      jump\t// in\n    tag_77:\n        /* \"#utility.yul\":986:991   */\n      dup2\n        /* \"#utility.yul\":983:1018   */\n      eq\n        /* \"#utility.yul\":973:1036   */\n      tag_78\n      jumpi\n        /* \"#utility.yul\":1032:1033   */\n      0x00\n        /* \"#utility.yul\":1029:1030   */\n      dup1\n        /* \"#utility.yul\":1022:1034   */\n      revert\n        /* \"#utility.yul\":973:1036   */\n    tag_78:\n        /* \"#utility.yul\":920:1042   */\n      pop\n      jump\t// out\n        /* \"#utility.yul\":1048:1187   */\n    tag_53:\n        /* \"#utility.yul\":1094:1099   */\n      0x00\n        /* \"#utility.yul\":1132:1138   */\n      dup2\n        /* \"#utility.yul\":1119:1139   */\n      calldataload\n        /* \"#utility.yul\":1110:1139   */\n      swap1\n      pop\n        /* \"#utility.yul\":1148:1181   */\n      tag_80\n        /* \"#utility.yul\":1175:1180   */\n      dup2\n        /* \"#utility.yul\":1148:1181   */\n      tag_52\n      jump\t// in\n    tag_80:\n        /* \"#utility.yul\":1048:1187   */\n      swap3\n      swap2\n      pop\n      pop\n      jump\t// out\n        /* \"#utility.yul\":1193:1522   */\n    tag_25:\n        /* \"#utility.yul\":1252:1258   */\n      0x00\n        /* \"#utility.yul\":1301:1303   */\n      0x20\n        /* \"#utility.yul\":1289:1298   */\n      dup3\n        /* \"#utility.yul\":1280:1287   */\n      dup5\n        /* \"#utility.yul\":1276:1299   */\n      sub\n        /* \"#utility.yul\":1272:1304   */\n      slt\n        /* \"#utility.yul\":1269:1388   */\n      iszero\n      tag_82\n      jumpi\n        /* \"#utility.yul\":1307:1386   */\n      tag_83\n      tag_50\n      jump\t// in\n    tag_83:\n        /* \"#utility.yul\":1269:1388   */\n    tag_82:\n        /* \"#utility.yul\":1427:1428   */\n      0x00\n        /* \"#utility.yul\":1452:1505   */\n      tag_84\n        /* \"#utility.yul\":1497:1504   */\n      dup5\n        /* \"#utility.yul\":1488:1494   */\n      dup3\n        /* \"#utility.yul\":1477:1486   */\n      dup6\n        /* \"#utility.yul\":1473:1495   */\n      add\n        /* \"#utility.yul\":1452:1505   */\n      tag_53\n      jump\t// in\n    tag_84:\n        /* \"#utility.yul\":1442:1505   */\n      swap2\n      pop\n        /* \"#utility.yul\":1398:1515   */\n      pop\n        /* \"#utility.yul\":1193:1522   */\n      swap3\n      swap2\n      pop\n      pop\n      jump\t// out\n        /* \"#utility.yul\":1528:1605   */\n    tag_54:\n        /* \"#utility.yul\":1565:1572   */\n      0x00\n        /* \"#utility.yul\":1594:1599   */\n      dup2\n        /* \"#utility.yul\":1583:1599   */\n      swap1\n      pop\n        /* \"#utility.yul\":1528:1605   */\n      swap2\n      swap1\n      pop\n      jump\t// out\n        /* \"#utility.yul\":1611:1729   */\n    tag_55:\n        /* \"#utility.yul\":1698:1722   */\n      tag_87\n        /* \"#utility.yul\":1716:1721   */\n      dup2\n        /* \"#utility.yul\":1698:1722   */\n      tag_54\n      jump\t// in\n    tag_87:\n        /* \"#utility.yul\":1693:1696   */\n      dup3\n        /* \"#utility.yul\":1686:1723   */\n      mstore\n        /* \"#utility.yul\":1611:1729   */\n      pop\n      pop\n      jump\t// out\n        /* \"#utility.yul\":1735:1957   */\n    tag_28:\n        /* \"#utility.yul\":1828:1832   */\n      0x00\n        /* \"#utility.yul\":1866:1868   */\n      0x20\n        /* \"#utility.yul\":1855:1864   */\n      dup3\n        /* \"#utility.yul\":1851:1869   */\n      add\n        /* \"#utility.yul\":1843:1869   */\n      swap1\n      pop\n        /* \"#utility.yul\":1879:1950   */\n      tag_89\n        /* \"#utility.yul\":1947:1948   */\n      0x00\n        /* \"#utility.yul\":1936:1945   */\n      dup4\n        /* \"#utility.yul\":1932:1949   */\n      add\n        /* \"#utility.yul\":1923:1929   */\n      dup5\n        /* \"#utility.yul\":1879:1950   */\n      tag_55\n      jump\t// in\n    tag_89:\n        /* \"#utility.yul\":1735:1957   */\n      swap3\n      swap2\n      pop\n      pop\n      jump\t// out\n        /* \"#utility.yul\":1963:2067   */\n    tag_56:\n        /* \"#utility.yul\":2008:2015   */\n      0x00\n        /* \"#utility.yul\":2037:2061   */\n      tag_91\n        /* \"#utility.yul\":2055:2060   */\n      dup3\n        /* \"#utility.yul\":2037:2061   */\n      tag_46\n      jump\t// in\n    tag_91:\n        /* \"#utility.yul\":2026:2061   */\n      swap1\n      pop\n        /* \"#utility.yul\":1963:2067   */\n      swap2\n      swap1\n      pop\n      jump\t// out\n        /* \"#utility.yul\":2073:2211   */\n    tag_57:\n        /* \"#utility.yul\":2154:2186   */\n      tag_93\n        /* \"#utility.yul\":2180:2185   */\n      dup2\n        /* \"#utility.yul\":2154:2186   */\n      tag_56\n      jump\t// in\n    tag_93:\n        /* \"#utility.yul\":2147:2152   */\n      dup2\n        /* \"#utility.yul\":2144:2187   */\n      eq\n        /* \"#utility.yul\":2134:2205   */\n      tag_94\n      jumpi\n        /* \"#utility.yul\":2201:2202   */\n      0x00\n        /* \"#utility.yul\":2198:2199   */\n      dup1\n        /* \"#utility.yul\":2191:2203   */\n      revert\n        /* \"#utility.yul\":2134:2205   */\n    tag_94:\n        /* \"#utility.yul\":2073:2211   */\n      pop\n      jump\t// out\n        /* \"#utility.yul\":2217:2372   */\n    tag_58:\n        /* \"#utility.yul\":2271:2276   */\n      0x00\n        /* \"#utility.yul\":2309:2315   */\n      dup2\n        /* \"#utility.yul\":2296:2316   */\n      calldataload\n        /* \"#utility.yul\":2287:2316   */\n      swap1\n      pop\n        /* \"#utility.yul\":2325:2366   */\n      tag_96\n        /* \"#utility.yul\":2360:2365   */\n      dup2\n        /* \"#utility.yul\":2325:2366   */\n      tag_57\n      jump\t// in\n    tag_96:\n        /* \"#utility.yul\":2217:2372   */\n      swap3\n      swap2\n      pop\n      pop\n      jump\t// out\n        /* \"#utility.yul\":2378:2500   */\n    tag_59:\n        /* \"#utility.yul\":2451:2475   */\n      tag_98\n        /* \"#utility.yul\":2469:2474   */\n      dup2\n        /* \"#utility.yul\":2451:2475   */\n      tag_54\n      jump\t// in\n    tag_98:\n        /* \"#utility.yul\":2444:2449   */\n      dup2\n        /* \"#utility.yul\":2441:2476   */\n      eq\n        /* \"#utility.yul\":2431:2494   */\n      tag_99\n      jumpi\n        /* \"#utility.yul\":2490:2491   */\n      0x00\n        /* \"#utility.yul\":2487:2488   */\n      dup1\n        /* \"#utility.yul\":2480:2492   */\n      revert\n        /* \"#utility.yul\":2431:2494   */\n    tag_99:\n        /* \"#utility.yul\":2378:2500   */\n      pop\n      jump\t// out\n        /* \"#utility.yul\":2506:2645   */\n    tag_60:\n        /* \"#utility.yul\":2552:2557   */\n      0x00\n        /* \"#utility.yul\":2590:2596   */\n      dup2\n        /* \"#utility.yul\":2577:2597   */\n      calldataload\n        /* \"#utility.yul\":2568:2597   */\n      swap1\n      pop\n        /* \"#utility.yul\":2606:2639   */\n      tag_101\n        /* \"#utility.yul\":2633:2638   */\n      dup2\n        /* \"#utility.yul\":2606:2639   */\n      tag_59\n      jump\t// in\n    tag_101:\n        /* \"#utility.yul\":2506:2645   */\n      swap3\n      swap2\n      pop\n      pop\n      jump\t// out\n        /* \"#utility.yul\":2651:3141   */\n    tag_32:\n        /* \"#utility.yul\":2727:2733   */\n      0x00\n        /* \"#utility.yul\":2735:2741   */\n      dup1\n        /* \"#utility.yul\":2784:2786   */\n      0x40\n        /* \"#utility.yul\":2772:2781   */\n      dup4\n        /* \"#utility.yul\":2763:2770   */\n      dup6\n        /* \"#utility.yul\":2759:2782   */\n      sub\n        /* \"#utility.yul\":2755:2787   */\n      slt\n        /* \"#utility.yul\":2752:2871   */\n      iszero\n      tag_103\n      jumpi\n        /* \"#utility.yul\":2790:2869   */\n      tag_104\n      tag_50\n      jump\t// in\n    tag_104:\n        /* \"#utility.yul\":2752:2871   */\n    tag_103:\n        /* \"#utility.yul\":2910:2911   */\n      0x00\n        /* \"#utility.yul\":2935:2996   */\n      tag_105\n        /* \"#utility.yul\":2988:2995   */\n      dup6\n        /* \"#utility.yul\":2979:2985   */\n      dup3\n        /* \"#utility.yul\":2968:2977   */\n      dup7\n        /* \"#utility.yul\":2964:2986   */\n      add\n        /* \"#utility.yul\":2935:2996   */\n      tag_58\n      jump\t// in\n    tag_105:\n        /* \"#utility.yul\":2925:2996   */\n      swap3\n      pop\n        /* \"#utility.yul\":2881:3006   */\n      pop\n        /* \"#utility.yul\":3045:3047   */\n      0x20\n        /* \"#utility.yul\":3071:3124   */\n      tag_106\n        /* \"#utility.yul\":3116:3123   */\n      dup6\n        /* \"#utility.yul\":3107:3113   */\n      dup3\n        /* \"#utility.yul\":3096:3105   */\n      dup7\n        /* \"#utility.yul\":3092:3114   */\n      add\n        /* \"#utility.yul\":3071:3124   */\n      tag_60\n      jump\t// in\n    tag_106:\n        /* \"#utility.yul\":3061:3124   */\n      swap2\n      pop\n        /* \"#utility.yul\":3016:3134   */\n      pop\n        /* \"#utility.yul\":2651:3141   */\n      swap3\n      pop\n      swap3\n      swap1\n      pop\n      jump\t// out\n        /* \"#utility.yul\":3147:3327   */\n    tag_61:\n        /* \"#utility.yul\":3195:3272   */\n      0x4e487b7100000000000000000000000000000000000000000000000000000000\n        /* \"#utility.yul\":3192:3193   */\n      0x00\n        /* \"#utility.yul\":3185:3273   */\n      mstore\n        /* \"#utility.yul\":3292:3296   */\n      0x11\n        /* \"#utility.yul\":3289:3290   */\n      0x04\n        /* \"#utility.yul\":3282:3297   */\n      mstore\n        /* \"#utility.yul\":3316:3320   */\n      0x24\n        /* \"#utility.yul\":3313:3314   */\n      0x00\n        /* \"#utility.yul\":3306:3321   */\n      revert\n        /* \"#utility.yul\":3333:3524   */\n    tag_36:\n        /* \"#utility.yul\":3373:3376   */\n      0x00\n        /* \"#utility.yul\":3392:3412   */\n      tag_109\n        /* \"#utility.yul\":3410:3411   */\n      dup3\n        /* \"#utility.yul\":3392:3412   */\n      tag_54\n      jump\t// in\n    tag_109:\n        /* \"#utility.yul\":3387:3412   */\n      swap2\n      pop\n        /* \"#utility.yul\":3426:3446   */\n      tag_110\n        /* \"#utility.yul\":3444:3445   */\n      dup4\n        /* \"#utility.yul\":3426:3446   */\n      tag_54\n      jump\t// in\n    tag_110:\n        /* \"#utility.yul\":3421:3446   */\n      swap3\n      pop\n        /* \"#utility.yul\":3469:3470   */\n      dup3\n        /* \"#utility.yul\":3466:3467   */\n      dup3\n        /* \"#utility.yul\":3462:3471   */\n      add\n        /* \"#utility.yul\":3455:3471   */\n      swap1\n      pop\n        /* \"#utility.yul\":3490:3493   */\n      dup1\n        /* \"#utility.yul\":3487:3488   */\n      dup3\n        /* \"#utility.yul\":3484:3494   */\n      gt\n        /* \"#utility.yul\":3481:3517   */\n      iszero\n      tag_111\n      jumpi\n        /* \"#utility.yul\":3497:3515   */\n      tag_112\n      tag_61\n      jump\t// in\n    tag_112:\n        /* \"#utility.yul\":3481:3517   */\n    tag_111:\n        /* \"#utility.yul\":3333:3524   */\n      swap3\n      swap2\n      pop\n      pop\n      jump\t// out\n        /* \"#utility.yul\":3530:3699   */\n    tag_62:\n        /* \"#utility.yul\":3614:3625   */\n      0x00\n        /* \"#utility.yul\":3648:3654   */\n      dup3\n        /* \"#utility.yul\":3643:3646   */\n      dup3\n        /* \"#utility.yul\":3636:3655   */\n      mstore\n        /* \"#utility.yul\":3688:3692   */\n      0x20\n        /* \"#utility.yul\":3683:3686   */\n      dup3\n        /* \"#utility.yul\":3679:3693   */\n      add\n        /* \"#utility.yul\":3664:3693   */\n      swap1\n      pop\n        /* \"#utility.yul\":3530:3699   */\n      swap3\n      swap2\n      pop\n      pop\n      jump\t// out\n        /* \"#utility.yul\":3705:3872   */\n    tag_63:\n        /* \"#utility.yul\":3845:3864   */\n      0x206e6f7420656e6f7567682066756e6473000000000000000000000000000000\n        /* \"#utility.yul\":3841:3842   */\n      0x00\n        /* \"#utility.yul\":3833:3839   */\n      dup3\n        /* \"#utility.yul\":3829:3843   */\n      add\n        /* \"#utility.yul\":3822:3865   */\n      mstore\n        /* \"#utility.yul\":3705:3872   */\n      pop\n      jump\t// out\n        /* \"#utility.yul\":3878:4244   */\n    tag_64:\n        /* \"#utility.yul\":4020:4023   */\n      0x00\n        /* \"#utility.yul\":4041:4108   */\n      tag_116\n        /* \"#utility.yul\":4105:4107   */\n      0x11\n        /* \"#utility.yul\":4100:4103   */\n      dup4\n        /* \"#utility.yul\":4041:4108   */\n      tag_62\n      jump\t// in\n    tag_116:\n        /* \"#utility.yul\":4034:4108   */\n      swap2\n      pop\n        /* \"#utility.yul\":4117:4210   */\n      tag_117\n        /* \"#utility.yul\":4206:4209   */\n      dup3\n        /* \"#utility.yul\":4117:4210   */\n      tag_63\n      jump\t// in\n    tag_117:\n        /* \"#utility.yul\":4235:4237   */\n      0x20\n        /* \"#utility.yul\":4230:4233   */\n      dup3\n        /* \"#utility.yul\":4226:4238   */\n      add\n        /* \"#utility.yul\":4219:4238   */\n      swap1\n      pop\n        /* \"#utility.yul\":3878:4244   */\n      swap2\n      swap1\n      pop\n      jump\t// out\n        /* \"#utility.yul\":4250:4669   */\n    tag_41:\n        /* \"#utility.yul\":4416:4420   */\n      0x00\n        /* \"#utility.yul\":4454:4456   */\n      0x20\n        /* \"#utility.yul\":4443:4452   */\n      dup3\n        /* \"#utility.yul\":4439:4457   */\n      add\n        /* \"#utility.yul\":4431:4457   */\n      swap1\n      pop\n        /* \"#utility.yul\":4503:4512   */\n      dup2\n        /* \"#utility.yul\":4497:4501   */\n      dup2\n        /* \"#utility.yul\":4493:4513   */\n      sub\n        /* \"#utility.yul\":4489:4490   */\n      0x00\n        /* \"#utility.yul\":4478:4487   */\n      dup4\n        /* \"#utility.yul\":4474:4491   */\n      add\n        /* \"#utility.yul\":4467:4514   */\n      mstore\n        /* \"#utility.yul\":4531:4662   */\n      tag_119\n        /* \"#utility.yul\":4657:4661   */\n      dup2\n        /* \"#utility.yul\":4531:4662   */\n      tag_64\n      jump\t// in\n    tag_119:\n        /* \"#utility.yul\":4523:4662   */\n      swap1\n      pop\n        /* \"#utility.yul\":4250:4669   */\n      swap2\n      swap1\n      pop\n      jump\t// out\n        /* \"#utility.yul\":4675:4869   */\n    tag_43:\n        /* \"#utility.yul\":4715:4719   */\n      0x00\n        /* \"#utility.yul\":4735:4755   */\n      tag_121\n        /* \"#utility.yul\":4753:4754   */\n      dup3\n        /* \"#utility.yul\":4735:4755   */\n      tag_54\n      jump\t// in\n    tag_121:\n        /* \"#utility.yul\":4730:4755   */\n      swap2\n      pop\n        /* \"#utility.yul\":4769:4789   */\n      tag_122\n        /* \"#utility.yul\":4787:4788   */\n      dup4\n        /* \"#utility.yul\":4769:4789   */\n      tag_54\n      jump\t// in\n    tag_122:\n        /* \"#utility.yul\":4764:4789   */\n      swap3\n      pop\n        /* \"#utility.yul\":4813:4814   */\n      dup3\n        /* \"#utility.yul\":4810:4811   */\n      dup3\n        /* \"#utility.yul\":4806:4815   */\n      sub\n        /* \"#utility.yul\":4798:4815   */\n      swap1\n      pop\n        /* \"#utility.yul\":4837:4838   */\n      dup2\n        /* \"#utility.yul\":4831:4835   */\n      dup2\n        /* \"#utility.yul\":4828:4839   */\n      gt\n        /* \"#utility.yul\":4825:4862   */\n      iszero\n      tag_123\n      jumpi\n        /* \"#utility.yul\":4842:4860   */\n      tag_124\n      tag_61\n      jump\t// in\n    tag_124:\n        /* \"#utility.yul\":4825:4862   */\n    tag_123:\n        /* \"#utility.yul\":4675:4869   */\n      swap3\n      swap2\n      pop\n      pop\n      jump\t// out\n\n    auxdata: 0xa26469706673582212200bd424a263ad59f6e4f4e3f28960149fec21ba6223897fc94004343b1965a9c364736f6c634300081a0033\n}\n",
				"bytecode": {
					"linkReferences": {},
					"object": "6080604052348015600e575f80fd5b503360015f6101000a81548173ffffffffffffffffffffffffffffffffffffffff021916908373ffffffffffffffffffffffffffffffffffffffff1602179055506105ae8061005c5f395ff3fe60806040526004361061004d575f3560e01c80636d26ec1814610058578063893d20e8146100625780638da5cb5b1461008c578063d18a42e1146100b6578063f274c897146100f25761004e565b5b61005661011a565b005b61006061011a565b005b34801561006d575f80fd5b5061007661016e565b6040516100839190610327565b60405180910390f35b348015610097575f80fd5b506100a0610196565b6040516100ad9190610327565b60405180910390f35b3480156100c1575f80fd5b506100dc60048036038101906100d7919061036e565b6101bb565b6040516100e991906103b1565b60405180910390f35b3480156100fd575f80fd5b506101186004803603810190610113919061042f565b6101cf565b005b345f803373ffffffffffffffffffffffffffffffffffffffff1673ffffffffffffffffffffffffffffffffffffffff1681526020019081526020015f205f828254610165919061049a565b92505081905550565b5f60015f9054906101000a900473ffffffffffffffffffffffffffffffffffffffff16905090565b60015f9054906101000a900473ffffffffffffffffffffffffffffffffffffffff1681565b5f602052805f5260405f205f915090505481565b805f803373ffffffffffffffffffffffffffffffffffffffff1673ffffffffffffffffffffffffffffffffffffffff1681526020019081526020015f2054101561024e576040517f08c379a000000000000000000000000000000000000000000000000000000000815260040161024590610527565b60405180910390fd5b805f803373ffffffffffffffffffffffffffffffffffffffff1673ffffffffffffffffffffffffffffffffffffffff1681526020019081526020015f205f8282546102999190610545565b925050819055508173ffffffffffffffffffffffffffffffffffffffff166108fc8290811502906040515f60405180830381858888f193505050501580156102e3573d5f803e3d5ffd5b505050565b5f73ffffffffffffffffffffffffffffffffffffffff82169050919050565b5f610311826102e8565b9050919050565b61032181610307565b82525050565b5f60208201905061033a5f830184610318565b92915050565b5f80fd5b61034d81610307565b8114610357575f80fd5b50565b5f8135905061036881610344565b92915050565b5f6020828403121561038357610382610340565b5b5f6103908482850161035a565b91505092915050565b5f819050919050565b6103ab81610399565b82525050565b5f6020820190506103c45f8301846103a2565b92915050565b5f6103d4826102e8565b9050919050565b6103e4816103ca565b81146103ee575f80fd5b50565b5f813590506103ff816103db565b92915050565b61040e81610399565b8114610418575f80fd5b50565b5f8135905061042981610405565b92915050565b5f806040838503121561044557610444610340565b5b5f610452858286016103f1565b92505060206104638582860161041b565b9150509250929050565b7f4e487b71000000000000000000000000000000000000000000000000000000005f52601160045260245ffd5b5f6104a482610399565b91506104af83610399565b92508282019050808211156104c7576104c661046d565b5b92915050565b5f82825260208201905092915050565b7f206e6f7420656e6f7567682066756e64730000000000000000000000000000005f82015250565b5f6105116011836104cd565b915061051c826104dd565b602082019050919050565b5f6020820190508181035f83015261053e81610505565b9050919050565b5f61054f82610399565b915061055a83610399565b92508282039050818111156105725761057161046d565b5b9291505056fea26469706673582212200bd424a263ad59f6e4f4e3f28960149fec21ba6223897fc94004343b1965a9c364736f6c634300081a0033",
					"opcodes": "PUSH1 0x80 PUSH1 0x40 MSTORE CALLVALUE DUP1 ISZERO PUSH1 0xE JUMPI PUSH0 DUP1 REVERT JUMPDEST POP CALLER PUSH1 0x1 PUSH0 PUSH2 0x100 EXP DUP2 SLOAD DUP2 PUSH20 0xFFFFFFFFFFFFFFFFFFFFFFFFFFFFFFFFFFFFFFFF MUL NOT AND SWAP1 DUP4 PUSH20 0xFFFFFFFFFFFFFFFFFFFFFFFFFFFFFFFFFFFFFFFF AND MUL OR SWAP1 SSTORE POP PUSH2 0x5AE DUP1 PUSH2 0x5C PUSH0 CODECOPY PUSH0 RETURN INVALID PUSH1 0x80 PUSH1 0x40 MSTORE PUSH1 0x4 CALLDATASIZE LT PUSH2 0x4D JUMPI PUSH0 CALLDATALOAD PUSH1 0xE0 SHR DUP1 PUSH4 0x6D26EC18 EQ PUSH2 0x58 JUMPI DUP1 PUSH4 0x893D20E8 EQ PUSH2 0x62 JUMPI DUP1 PUSH4 0x8DA5CB5B EQ PUSH2 0x8C JUMPI DUP1 PUSH4 0xD18A42E1 EQ PUSH2 0xB6 JUMPI DUP1 PUSH4 0xF274C897 EQ PUSH2 0xF2 JUMPI PUSH2 0x4E JUMP JUMPDEST JUMPDEST PUSH2 0x56 PUSH2 0x11A JUMP JUMPDEST STOP JUMPDEST PUSH2 0x60 PUSH2 0x11A JUMP JUMPDEST STOP JUMPDEST CALLVALUE DUP1 ISZERO PUSH2 0x6D JUMPI PUSH0 DUP1 REVERT JUMPDEST POP PUSH2 0x76 PUSH2 0x16E JUMP JUMPDEST PUSH1 0x40 MLOAD PUSH2 0x83 SWAP2 SWAP1 PUSH2 0x327 JUMP JUMPDEST PUSH1 0x40 MLOAD DUP1 SWAP2 SUB SWAP1 RETURN JUMPDEST CALLVALUE DUP1 ISZERO PUSH2 0x97 JUMPI PUSH0 DUP1 REVERT JUMPDEST POP PUSH2 0xA0 PUSH2 0x196 JUMP JUMPDEST PUSH1 0x40 MLOAD PUSH2 0xAD SWAP2 SWAP1 PUSH2 0x327 JUMP JUMPDEST PUSH1 0x40 MLOAD DUP1 SWAP2 SUB SWAP1 RETURN JUMPDEST CALLVALUE DUP1 ISZERO PUSH2 0xC1 JUMPI PUSH0 DUP1 REVERT JUMPDEST POP PUSH2 0xDC PUSH1 0x4 DUP1 CALLDATASIZE SUB DUP2 ADD SWAP1 PUSH2 0xD7 SWAP2 SWAP1 PUSH2 0x36E JUMP JUMPDEST PUSH2 0x1BB JUMP JUMPDEST PUSH1 0x40 MLOAD PUSH2 0xE9 SWAP2 SWAP1 PUSH2 0x3B1 JUMP JUMPDEST PUSH1 0x40 MLOAD DUP1 SWAP2 SUB SWAP1 RETURN JUMPDEST CALLVALUE DUP1 ISZERO PUSH2 0xFD JUMPI PUSH0 DUP1 REVERT JUMPDEST POP PUSH2 0x118 PUSH1 0x4 DUP1 CALLDATASIZE SUB DUP2 ADD SWAP1 PUSH2 0x113 SWAP2 SWAP1 PUSH2 0x42F JUMP JUMPDEST PUSH2 0x1CF JUMP JUMPDEST STOP JUMPDEST CALLVALUE PUSH0 DUP1 CALLER PUSH20 0xFFFFFFFFFFFFFFFFFFFFFFFFFFFFFFFFFFFFFFFF AND PUSH20 0xFFFFFFFFFFFFFFFFFFFFFFFFFFFFFFFFFFFFFFFF AND DUP2 MSTORE PUSH1 0x20 ADD SWAP1 DUP2 MSTORE PUSH1 0x20 ADD PUSH0 KECCAK256 PUSH0 DUP3 DUP3 SLOAD PUSH2 0x165 SWAP2 SWAP1 PUSH2 0x49A JUMP JUMPDEST SWAP3 POP POP DUP2 SWAP1 SSTORE POP JUMP JUMPDEST PUSH0 PUSH1 0x1 PUSH0 SWAP1 SLOAD SWAP1 PUSH2 0x100 EXP SWAP1 DIV PUSH20 0xFFFFFFFFFFFFFFFFFFFFFFFFFFFFFFFFFFFFFFFF AND SWAP1 POP SWAP1 JUMP JUMPDEST PUSH1 0x1 PUSH0 SWAP1 SLOAD SWAP1 PUSH2 0x100 EXP SWAP1 DIV PUSH20 0xFFFFFFFFFFFFFFFFFFFFFFFFFFFFFFFFFFFFFFFF AND DUP2 JUMP JUMPDEST PUSH0 PUSH1 0x20 MSTORE DUP1 PUSH0 MSTORE PUSH1 0x40 PUSH0 KECCAK256 PUSH0 SWAP2 POP SWAP1 POP SLOAD DUP2 JUMP JUMPDEST DUP1 PUSH0 DUP1 CALLER PUSH20 0xFFFFFFFFFFFFFFFFFFFFFFFFFFFFFFFFFFFFFFFF AND PUSH20 0xFFFFFFFFFFFFFFFFFFFFFFFFFFFFFFFFFFFFFFFF AND DUP2 MSTORE PUSH1 0x20 ADD SWAP1 DUP2 MSTORE PUSH1 0x20 ADD PUSH0 KECCAK256 SLOAD LT ISZERO PUSH2 0x24E JUMPI PUSH1 0x40 MLOAD PUSH32 0x8C379A000000000000000000000000000000000000000000000000000000000 DUP2 MSTORE PUSH1 0x4 ADD PUSH2 0x245 SWAP1 PUSH2 0x527 JUMP JUMPDEST PUSH1 0x40 MLOAD DUP1 SWAP2 SUB SWAP1 REVERT JUMPDEST DUP1 PUSH0 DUP1 CALLER PUSH20 0xFFFFFFFFFFFFFFFFFFFFFFFFFFFFFFFFFFFFFFFF AND PUSH20 0xFFFFFFFFFFFFFFFFFFFFFFFFFFFFFFFFFFFFFFFF AND DUP2 MSTORE PUSH1 0x20 ADD SWAP1 DUP2 MSTORE PUSH1 0x20 ADD PUSH0 KECCAK256 PUSH0 DUP3 DUP3 SLOAD PUSH2 0x299 SWAP2 SWAP1 PUSH2 0x545 JUMP JUMPDEST SWAP3 POP POP DUP2 SWAP1 SSTORE POP DUP2 PUSH20 0xFFFFFFFFFFFFFFFFFFFFFFFFFFFFFFFFFFFFFFFF AND PUSH2 0x8FC DUP3 SWAP1 DUP2 ISZERO MUL SWAP1 PUSH1 0x40 MLOAD PUSH0 PUSH1 0x40 MLOAD DUP1 DUP4 SUB DUP2 DUP6 DUP9 DUP9 CALL SWAP4 POP POP POP POP ISZERO DUP1 ISZERO PUSH2 0x2E3 JUMPI RETURNDATASIZE PUSH0 DUP1 RETURNDATACOPY RETURNDATASIZE PUSH0 REVERT JUMPDEST POP POP POP JUMP JUMPDEST PUSH0 PUSH20 0xFFFFFFFFFFFFFFFFFFFFFFFFFFFFFFFFFFFFFFFF DUP3 AND SWAP1 POP SWAP2 SWAP1 POP JUMP JUMPDEST PUSH0 PUSH2 0x311 DUP3 PUSH2 0x2E8 JUMP JUMPDEST SWAP1 POP SWAP2 SWAP1 POP JUMP JUMPDEST PUSH2 0x321 DUP2 PUSH2 0x307 JUMP JUMPDEST DUP3 MSTORE POP POP JUMP JUMPDEST PUSH0 PUSH1 0x20 DUP3 ADD SWAP1 POP PUSH2 0x33A PUSH0 DUP4 ADD DUP5 PUSH2 0x318 JUMP JUMPDEST SWAP3 SWAP2 POP POP JUMP JUMPDEST PUSH0 DUP1 REVERT JUMPDEST PUSH2 0x34D DUP2 PUSH2 0x307 JUMP JUMPDEST DUP2 EQ PUSH2 0x357 JUMPI PUSH0 DUP1 REVERT JUMPDEST POP JUMP JUMPDEST PUSH0 DUP2 CALLDATALOAD SWAP1 POP PUSH2 0x368 DUP2 PUSH2 0x344 JUMP JUMPDEST SWAP3 SWAP2 POP POP JUMP JUMPDEST PUSH0 PUSH1 0x20 DUP3 DUP5 SUB SLT ISZERO PUSH2 0x383 JUMPI PUSH2 0x382 PUSH2 0x340 JUMP JUMPDEST JUMPDEST PUSH0 PUSH2 0x390 DUP5 DUP3 DUP6 ADD PUSH2 0x35A JUMP JUMPDEST SWAP2 POP POP SWAP3 SWAP2 POP POP JUMP JUMPDEST PUSH0 DUP2 SWAP1 POP SWAP2 SWAP1 POP JUMP JUMPDEST PUSH2 0x3AB DUP2 PUSH2 0x399 JUMP JUMPDEST DUP3 MSTORE POP POP JUMP JUMPDEST PUSH0 PUSH1 0x20 DUP3 ADD SWAP1 POP PUSH2 0x3C4 PUSH0 DUP4 ADD DUP5 PUSH2 0x3A2 JUMP JUMPDEST SWAP3 SWAP2 POP POP JUMP JUMPDEST PUSH0 PUSH2 0x3D4 DUP3 PUSH2 0x2E8 JUMP JUMPDEST SWAP1 POP SWAP2 SWAP1 POP JUMP JUMPDEST PUSH2 0x3E4 DUP2 PUSH2 0x3CA JUMP JUMPDEST DUP2 EQ PUSH2 0x3EE JUMPI PUSH0 DUP1 REVERT JUMPDEST POP JUMP JUMPDEST PUSH0 DUP2 CALLDATALOAD SWAP1 POP PUSH2 0x3FF DUP2 PUSH2 0x3DB JUMP JUMPDEST SWAP3 SWAP2 POP POP JUMP JUMPDEST PUSH2 0x40E DUP2 PUSH2 0x399 JUMP JUMPDEST DUP2 EQ PUSH2 0x418 JUMPI PUSH0 DUP1 REVERT JUMPDEST POP JUMP JUMPDEST PUSH0 DUP2 CALLDATALOAD SWAP1 POP PUSH2 0x429 DUP2 PUSH2 0x405 JUMP JUMPDEST SWAP3 SWAP2 POP POP JUMP JUMPDEST PUSH0 DUP1 PUSH1 0x40 DUP4 DUP6 SUB SLT ISZERO PUSH2 0x445 JUMPI PUSH2 0x444 PUSH2 0x340 JUMP JUMPDEST JUMPDEST PUSH0 PUSH2 0x452 DUP6 DUP3 DUP7 ADD PUSH2 0x3F1 JUMP JUMPDEST SWAP3 POP POP PUSH1 0x20 PUSH2 0x463 DUP6 DUP3 DUP7 ADD PUSH2 0x41B JUMP JUMPDEST SWAP2 POP POP SWAP3 POP SWAP3 SWAP1 POP JUMP JUMPDEST PUSH32 0x4E487B7100000000000000000000000000000000000000000000000000000000 PUSH0 MSTORE PUSH1 0x11 PUSH1 0x4 MSTORE PUSH1 0x24 PUSH0 REVERT JUMPDEST PUSH0 PUSH2 0x4A4 DUP3 PUSH2 0x399 JUMP JUMPDEST SWAP2 POP PUSH2 0x4AF DUP4 PUSH2 0x399 JUMP JUMPDEST SWAP3 POP DUP3 DUP3 ADD SWAP1 POP DUP1 DUP3 GT ISZERO PUSH2 0x4C7 JUMPI PUSH2 0x4C6 PUSH2 0x46D JUMP JUMPDEST JUMPDEST SWAP3 SWAP2 POP POP JUMP JUMPDEST PUSH0 DUP3 DUP3 MSTORE PUSH1 0x20 DUP3 ADD SWAP1 POP SWAP3 SWAP2 POP POP JUMP JUMPDEST PUSH32 0x206E6F7420656E6F7567682066756E6473000000000000000000000000000000 PUSH0 DUP3 ADD MSTORE POP JUMP JUMPDEST PUSH0 PUSH2 0x511 PUSH1 0x11 DUP4 PUSH2 0x4CD JUMP JUMPDEST SWAP2 POP PUSH2 0x51C DUP3 PUSH2 0x4DD JUMP JUMPDEST PUSH1 0x20 DUP3 ADD SWAP1 POP SWAP2 SWAP1 POP JUMP JUMPDEST PUSH0 PUSH1 0x20 DUP3 ADD SWAP1 POP DUP2 DUP2 SUB PUSH0 DUP4 ADD MSTORE PUSH2 0x53E DUP2 PUSH2 0x505 JUMP JUMPDEST SWAP1 POP SWAP2 SWAP1 POP JUMP JUMPDEST PUSH0 PUSH2 0x54F DUP3 PUSH2 0x399 JUMP JUMPDEST SWAP2 POP PUSH2 0x55A DUP4 PUSH2 0x399 JUMP JUMPDEST SWAP3 POP DUP3 DUP3 SUB SWAP1 POP DUP2 DUP2 GT ISZERO PUSH2 0x572 JUMPI PUSH2 0x571 PUSH2 0x46D JUMP JUMPDEST JUMPDEST SWAP3 SWAP2 POP POP JUMP INVALID LOG2 PUSH5 0x6970667358 0x22 SLT KECCAK256 SIGNEXTEND 0xD4 0x24 LOG2 PUSH4 0xAD59F6E4 DELEGATECALL 0xE3 CALLCODE DUP10 PUSH1 0x14 SWAP16 0xEC 0x21 0xBA PUSH3 0x23897F 0xC9 BLOCKHASH DIV CALLVALUE EXTCODESIZE NOT PUSH6 0xA9C364736F6C PUSH4 0x4300081A STOP CALLER "
				},
				"gasEstimates": {
					"creation": {
						"codeDepositCost": "290800",
						"executionCost": "24594",
						"totalCost": "315394"
					},
					"external": {
						"": "infinite",
						"balanceReceived(address)": "2845",
						"getOwner()": "2515",
						"owner()": "2530",
						"receiveMoney()": "infinite",
						"withdrawMoney(address,uint256)": "infinite"
					}
				},
				"methodIdentifiers": {
					"balanceReceived(address)": "d18a42e1",
					"getOwner()": "893d20e8",
					"owner()": "8da5cb5b",
					"receiveMoney()": "6d26ec18",
					"withdrawMoney(address,uint256)": "f274c897"
				}
			},
			"storageLayout": {
				"storage": [
					{
						"astId": 5,
						"contract": "contracts/fallback_examplle.sol:FallbackExample",
						"label": "balanceReceived",
						"offset": 0,
						"slot": "0",
						"type": "t_mapping(t_address,t_uint256)"
					},
					{
						"astId": 7,
						"contract": "contracts/fallback_examplle.sol:FallbackExample",
						"label": "owner",
						"offset": 0,
						"slot": "1",
						"type": "t_address"
					}
				],
				"types": {
					"t_address": {
						"encoding": "inplace",
						"label": "address",
						"numberOfBytes": "20"
					},
					"t_mapping(t_address,t_uint256)": {
						"encoding": "mapping",
						"key": "t_address",
						"label": "mapping(address => uint256)",
						"numberOfBytes": "32",
						"value": "t_uint256"
					},
					"t_uint256": {
						"encoding": "inplace",
						"label": "uint256",
						"numberOfBytes": "32"
					}
				}
			},
			"userdoc": {
				"kind": "user",
				"methods": {},
				"version": 1
			}
		}
	}
}