{
	"contracts/constructor_Example.sol": {
		"ConstructorExample": {
			"abi": [
				{
					"inputs": [],
					"stateMutability": "nonpayable",
					"type": "constructor"
				},
				{
					"inputs": [
						{
							"internalType": "address",
							"name": "",
							"type": "address"
						}
					],
					"name": "balanceReceived",
					"outputs": [
						{
							"internalType": "uint256",
							"name": "",
							"type": "uint256"
						}
					],
					"stateMutability": "view",
					"type": "function"
				},
				{
					"inputs": [
						{
							"internalType": "uint256",
							"name": "_amountReceive",
							"type": "uint256"
						}
					],
					"name": "convertWeiToEther",
					"outputs": [
						{
							"internalType": "uint256",
							"name": "",
							"type": "uint256"
						}
					],
					"stateMutability": "pure",
					"type": "function"
				},
				{
					"inputs": [],
					"name": "getOwner",
					"outputs": [
						{
							"internalType": "address",
							"name": "",
							"type": "address"
						}
					],
					"stateMutability": "view",
					"type": "function"
				},
				{
					"inputs": [],
					"name": "owner",
					"outputs": [
						{
							"internalType": "address",
							"name": "",
							"type": "address"
						}
					],
					"stateMutability": "view",
					"type": "function"
				},
				{
					"inputs": [],
					"name": "receivedMoney",
					"outputs": [],
					"stateMutability": "payable",
					"type": "function"
				},
				{
					"inputs": [
						{
							"internalType": "address payable",
							"name": "_to",
							"type": "address"
						},
						{
							"internalType": "uint256",
							"name": "_amount",
							"type": "uint256"
						}
					],
					"name": "withdrawMoney",
					"outputs": [],
					"stateMutability": "nonpayable",
					"type": "function"
				}
			],
			"devdoc": {
				"kind": "dev",
				"methods": {},
				"version": 1
			},
			"evm": {
				"assembly": "    /* \"contracts/constructor_Example.sol\":59:889  contract ConstructorExample{... */\n  mstore(0x40, 0x80)\n    /* \"contracts/constructor_Example.sol\":180:228  constructor(){... */\n  callvalue\n  dup1\n  iszero\n  tag_1\n  jumpi\n  0x00\n  dup1\n  revert\ntag_1:\n  pop\n    /* \"contracts/constructor_Example.sol\":211:221  msg.sender */\n  caller\n    /* \"contracts/constructor_Example.sol\":203:208  owner */\n  0x01\n  0x00\n    /* \"contracts/constructor_Example.sol\":203:221  owner = msg.sender */\n  0x0100\n  exp\n  dup2\n  sload\n  dup2\n  0xffffffffffffffffffffffffffffffffffffffff\n  mul\n  not\n  and\n  swap1\n  dup4\n  0xffffffffffffffffffffffffffffffffffffffff\n  and\n  mul\n  or\n  swap1\n  sstore\n  pop\n    /* \"contracts/constructor_Example.sol\":59:889  contract ConstructorExample{... */\n  dataSize(sub_0)\n  dup1\n  dataOffset(sub_0)\n  0x00\n  codecopy\n  0x00\n  return\nstop\n\nsub_0: assembly {\n        /* \"contracts/constructor_Example.sol\":59:889  contract ConstructorExample{... */\n      mstore(0x40, 0x80)\n      jumpi(tag_1, lt(calldatasize, 0x04))\n      shr(0xe0, calldataload(0x00))\n      dup1\n      0x395a6063\n      eq\n      tag_2\n      jumpi\n      dup1\n      0x77fac483\n      eq\n      tag_3\n      jumpi\n      dup1\n      0x893d20e8\n      eq\n      tag_4\n      jumpi\n      dup1\n      0x8da5cb5b\n      eq\n      tag_5\n      jumpi\n      dup1\n      0xd18a42e1\n      eq\n      tag_6\n      jumpi\n      dup1\n      0xf274c897\n      eq\n      tag_7\n      jumpi\n    tag_1:\n      0x00\n      dup1\n      revert\n        /* \"contracts/constructor_Example.sol\":319:493  function convertWeiToEther(uint _amountReceive) public pure returns (uint){... */\n    tag_2:\n      callvalue\n      dup1\n      iszero\n      tag_8\n      jumpi\n      0x00\n      dup1\n      revert\n    tag_8:\n      pop\n      tag_9\n      0x04\n      dup1\n      calldatasize\n      sub\n      dup2\n      add\n      swap1\n      tag_10\n      swap2\n      swap1\n      tag_11\n      jump\t// in\n    tag_10:\n      tag_12\n      jump\t// in\n    tag_9:\n      mload(0x40)\n      tag_13\n      swap2\n      swap1\n      tag_14\n      jump\t// in\n    tag_13:\n      mload(0x40)\n      dup1\n      swap2\n      sub\n      swap1\n      return\n        /* \"contracts/constructor_Example.sol\":504:601  function receivedMoney() public payable {... */\n    tag_3:\n      tag_15\n      tag_16\n      jump\t// in\n    tag_15:\n      stop\n        /* \"contracts/constructor_Example.sol\":235:313  function getOwner() public view returns (address){... */\n    tag_4:\n      callvalue\n      dup1\n      iszero\n      tag_17\n      jumpi\n      0x00\n      dup1\n      revert\n    tag_17:\n      pop\n      tag_18\n      tag_19\n      jump\t// in\n    tag_18:\n      mload(0x40)\n      tag_20\n      swap2\n      swap1\n      tag_21\n      jump\t// in\n    tag_20:\n      mload(0x40)\n      dup1\n      swap2\n      sub\n      swap1\n      return\n        /* \"contracts/constructor_Example.sol\":152:173  address public  owner */\n    tag_5:\n      callvalue\n      dup1\n      iszero\n      tag_22\n      jumpi\n      0x00\n      dup1\n      revert\n    tag_22:\n      pop\n      tag_23\n      tag_24\n      jump\t// in\n    tag_23:\n      mload(0x40)\n      tag_25\n      swap2\n      swap1\n      tag_21\n      jump\t// in\n    tag_25:\n      mload(0x40)\n      dup1\n      swap2\n      sub\n      swap1\n      return\n        /* \"contracts/constructor_Example.sol\":97:146  mapping (address => uint ) public balanceReceived */\n    tag_6:\n      callvalue\n      dup1\n      iszero\n      tag_26\n      jumpi\n      0x00\n      dup1\n      revert\n    tag_26:\n      pop\n      tag_27\n      0x04\n      dup1\n      calldatasize\n      sub\n      dup2\n      add\n      swap1\n      tag_28\n      swap2\n      swap1\n      tag_29\n      jump\t// in\n    tag_28:\n      tag_30\n      jump\t// in\n    tag_27:\n      mload(0x40)\n      tag_31\n      swap2\n      swap1\n      tag_14\n      jump\t// in\n    tag_31:\n      mload(0x40)\n      dup1\n      swap2\n      sub\n      swap1\n      return\n        /* \"contracts/constructor_Example.sol\":609:885  function withdrawMoney(address payable _to, uint256 _amount) public {... */\n    tag_7:\n      callvalue\n      dup1\n      iszero\n      tag_32\n      jumpi\n      0x00\n      dup1\n      revert\n    tag_32:\n      pop\n      tag_33\n      0x04\n      dup1\n      calldatasize\n      sub\n      dup2\n      add\n      swap1\n      tag_34\n      swap2\n      swap1\n      tag_35\n      jump\t// in\n    tag_34:\n      tag_36\n      jump\t// in\n    tag_33:\n      stop\n        /* \"contracts/constructor_Example.sol\":319:493  function convertWeiToEther(uint _amountReceive) public pure returns (uint){... */\n    tag_12:\n        /* \"contracts/constructor_Example.sol\":388:392  uint */\n      0x00\n        /* \"contracts/constructor_Example.sol\":427:434  1 ether */\n      0x0de0b6b3a7640000\n        /* \"contracts/constructor_Example.sol\":410:424  _amountReceive */\n      dup3\n        /* \"contracts/constructor_Example.sol\":410:434  _amountReceive / 1 ether */\n      tag_38\n      swap2\n      swap1\n      tag_39\n      jump\t// in\n    tag_38:\n        /* \"contracts/constructor_Example.sol\":403:434  return _amountReceive / 1 ether */\n      swap1\n      pop\n        /* \"contracts/constructor_Example.sol\":319:493  function convertWeiToEther(uint _amountReceive) public pure returns (uint){... */\n      swap2\n      swap1\n      pop\n      jump\t// out\n        /* \"contracts/constructor_Example.sol\":504:601  function receivedMoney() public payable {... */\n    tag_16:\n        /* \"contracts/constructor_Example.sol\":585:594  msg.value */\n      callvalue\n        /* \"contracts/constructor_Example.sol\":554:569  balanceReceived */\n      0x00\n        /* \"contracts/constructor_Example.sol\":554:581  balanceReceived[msg.sender] */\n      dup1\n        /* \"contracts/constructor_Example.sol\":570:580  msg.sender */\n      caller\n        /* \"contracts/constructor_Example.sol\":554:581  balanceReceived[msg.sender] */\n      0xffffffffffffffffffffffffffffffffffffffff\n      and\n      0xffffffffffffffffffffffffffffffffffffffff\n      and\n      dup2\n      mstore\n      0x20\n      add\n      swap1\n      dup2\n      mstore\n      0x20\n      add\n      0x00\n      keccak256\n      0x00\n        /* \"contracts/constructor_Example.sol\":554:594  balanceReceived[msg.sender] += msg.value */\n      dup3\n      dup3\n      sload\n      tag_41\n      swap2\n      swap1\n      tag_42\n      jump\t// in\n    tag_41:\n      swap3\n      pop\n      pop\n      dup2\n      swap1\n      sstore\n      pop\n        /* \"contracts/constructor_Example.sol\":504:601  function receivedMoney() public payable {... */\n      jump\t// out\n        /* \"contracts/constructor_Example.sol\":235:313  function getOwner() public view returns (address){... */\n    tag_19:\n        /* \"contracts/constructor_Example.sol\":276:283  address */\n      0x00\n        /* \"contracts/constructor_Example.sol\":301:306  owner */\n      0x01\n      0x00\n      swap1\n      sload\n      swap1\n      0x0100\n      exp\n      swap1\n      div\n      0xffffffffffffffffffffffffffffffffffffffff\n      and\n        /* \"contracts/constructor_Example.sol\":294:306  return owner */\n      swap1\n      pop\n        /* \"contracts/constructor_Example.sol\":235:313  function getOwner() public view returns (address){... */\n      swap1\n      jump\t// out\n        /* \"contracts/constructor_Example.sol\":152:173  address public  owner */\n    tag_24:\n      0x01\n      0x00\n      swap1\n      sload\n      swap1\n      0x0100\n      exp\n      swap1\n      div\n      0xffffffffffffffffffffffffffffffffffffffff\n      and\n      dup2\n      jump\t// out\n        /* \"contracts/constructor_Example.sol\":97:146  mapping (address => uint ) public balanceReceived */\n    tag_30:\n      mstore(0x20, 0x00)\n      dup1\n      0x00\n      mstore\n      keccak256(0x00, 0x40)\n      0x00\n      swap2\n      pop\n      swap1\n      pop\n      sload\n      dup2\n      jump\t// out\n        /* \"contracts/constructor_Example.sol\":609:885  function withdrawMoney(address payable _to, uint256 _amount) public {... */\n    tag_36:\n        /* \"contracts/constructor_Example.sol\":726:733  _amount */\n      dup1\n        /* \"contracts/constructor_Example.sol\":695:710  balanceReceived */\n      0x00\n        /* \"contracts/constructor_Example.sol\":695:722  balanceReceived[msg.sender] */\n      dup1\n        /* \"contracts/constructor_Example.sol\":711:721  msg.sender */\n      caller\n        /* \"contracts/constructor_Example.sol\":695:722  balanceReceived[msg.sender] */\n      0xffffffffffffffffffffffffffffffffffffffff\n      and\n      0xffffffffffffffffffffffffffffffffffffffff\n      and\n      dup2\n      mstore\n      0x20\n      add\n      swap1\n      dup2\n      mstore\n      0x20\n      add\n      0x00\n      keccak256\n      sload\n        /* \"contracts/constructor_Example.sol\":695:733  balanceReceived[msg.sender] >= _amount */\n      lt\n      iszero\n        /* \"contracts/constructor_Example.sol\":687:755  require(balanceReceived[msg.sender] >= _amount, \" not enough funds\") */\n      tag_45\n      jumpi\n      mload(0x40)\n      0x08c379a000000000000000000000000000000000000000000000000000000000\n      dup2\n      mstore\n      0x04\n      add\n      tag_46\n      swap1\n      tag_47\n      jump\t// in\n    tag_46:\n      mload(0x40)\n      dup1\n      swap2\n      sub\n      swap1\n      revert\n    tag_45:\n        /* \"contracts/constructor_Example.sol\":840:847  _amount */\n      dup1\n        /* \"contracts/constructor_Example.sol\":809:824  balanceReceived */\n      0x00\n        /* \"contracts/constructor_Example.sol\":809:836  balanceReceived[msg.sender] */\n      dup1\n        /* \"contracts/constructor_Example.sol\":825:835  msg.sender */\n      caller\n        /* \"contracts/constructor_Example.sol\":809:836  balanceReceived[msg.sender] */\n      0xffffffffffffffffffffffffffffffffffffffff\n      and\n      0xffffffffffffffffffffffffffffffffffffffff\n      and\n      dup2\n      mstore\n      0x20\n      add\n      swap1\n      dup2\n      mstore\n      0x20\n      add\n      0x00\n      keccak256\n      0x00\n        /* \"contracts/constructor_Example.sol\":809:847  balanceReceived[msg.sender] -= _amount */\n      dup3\n      dup3\n      sload\n      tag_48\n      swap2\n      swap1\n      tag_49\n      jump\t// in\n    tag_48:\n      swap3\n      pop\n      pop\n      dup2\n      swap1\n      sstore\n      pop\n        /* \"contracts/constructor_Example.sol\":857:860  _to */\n      dup2\n        /* \"contracts/constructor_Example.sol\":857:869  _to.transfer */\n      0xffffffffffffffffffffffffffffffffffffffff\n      and\n        /* \"contracts/constructor_Example.sol\":857:878  _to.transfer(_amount) */\n      0x08fc\n        /* \"contracts/constructor_Example.sol\":870:877  _amount */\n      dup3\n        /* \"contracts/constructor_Example.sol\":857:878  _to.transfer(_amount) */\n      swap1\n      dup2\n      iszero\n      mul\n      swap1\n      mload(0x40)\n      0x00\n      mload(0x40)\n      dup1\n      dup4\n      sub\n      dup2\n      dup6\n      dup9\n      dup9\n      call\n      swap4\n      pop\n      pop\n      pop\n      pop\n      iszero\n      dup1\n      iszero\n      tag_51\n      jumpi\n      returndatasize\n      0x00\n      dup1\n      returndatacopy\n      revert(0x00, returndatasize)\n    tag_51:\n      pop\n        /* \"contracts/constructor_Example.sol\":609:885  function withdrawMoney(address payable _to, uint256 _amount) public {... */\n      pop\n      pop\n      jump\t// out\n        /* \"#utility.yul\":88:205   */\n    tag_53:\n        /* \"#utility.yul\":197:198   */\n      0x00\n        /* \"#utility.yul\":194:195   */\n      dup1\n        /* \"#utility.yul\":187:199   */\n      revert\n        /* \"#utility.yul\":334:411   */\n    tag_55:\n        /* \"#utility.yul\":371:378   */\n      0x00\n        /* \"#utility.yul\":400:405   */\n      dup2\n        /* \"#utility.yul\":389:405   */\n      swap1\n      pop\n        /* \"#utility.yul\":334:411   */\n      swap2\n      swap1\n      pop\n      jump\t// out\n        /* \"#utility.yul\":417:539   */\n    tag_56:\n        /* \"#utility.yul\":490:514   */\n      tag_78\n        /* \"#utility.yul\":508:513   */\n      dup2\n        /* \"#utility.yul\":490:514   */\n      tag_55\n      jump\t// in\n    tag_78:\n        /* \"#utility.yul\":483:488   */\n      dup2\n        /* \"#utility.yul\":480:515   */\n      eq\n        /* \"#utility.yul\":470:533   */\n      tag_79\n      jumpi\n        /* \"#utility.yul\":529:530   */\n      0x00\n        /* \"#utility.yul\":526:527   */\n      dup1\n        /* \"#utility.yul\":519:531   */\n      revert\n        /* \"#utility.yul\":470:533   */\n    tag_79:\n        /* \"#utility.yul\":417:539   */\n      pop\n      jump\t// out\n        /* \"#utility.yul\":545:684   */\n    tag_57:\n        /* \"#utility.yul\":591:596   */\n      0x00\n        /* \"#utility.yul\":629:635   */\n      dup2\n        /* \"#utility.yul\":616:636   */\n      calldataload\n        /* \"#utility.yul\":607:636   */\n      swap1\n      pop\n        /* \"#utility.yul\":645:678   */\n      tag_81\n        /* \"#utility.yul\":672:677   */\n      dup2\n        /* \"#utility.yul\":645:678   */\n      tag_56\n      jump\t// in\n    tag_81:\n        /* \"#utility.yul\":545:684   */\n      swap3\n      swap2\n      pop\n      pop\n      jump\t// out\n        /* \"#utility.yul\":690:1019   */\n    tag_11:\n        /* \"#utility.yul\":749:755   */\n      0x00\n        /* \"#utility.yul\":798:800   */\n      0x20\n        /* \"#utility.yul\":786:795   */\n      dup3\n        /* \"#utility.yul\":777:784   */\n      dup5\n        /* \"#utility.yul\":773:796   */\n      sub\n        /* \"#utility.yul\":769:801   */\n      slt\n        /* \"#utility.yul\":766:885   */\n      iszero\n      tag_83\n      jumpi\n        /* \"#utility.yul\":804:883   */\n      tag_84\n      tag_53\n      jump\t// in\n    tag_84:\n        /* \"#utility.yul\":766:885   */\n    tag_83:\n        /* \"#utility.yul\":924:925   */\n      0x00\n        /* \"#utility.yul\":949:1002   */\n      tag_85\n        /* \"#utility.yul\":994:1001   */\n      dup5\n        /* \"#utility.yul\":985:991   */\n      dup3\n        /* \"#utility.yul\":974:983   */\n      dup6\n        /* \"#utility.yul\":970:992   */\n      add\n        /* \"#utility.yul\":949:1002   */\n      tag_57\n      jump\t// in\n    tag_85:\n        /* \"#utility.yul\":939:1002   */\n      swap2\n      pop\n        /* \"#utility.yul\":895:1012   */\n      pop\n        /* \"#utility.yul\":690:1019   */\n      swap3\n      swap2\n      pop\n      pop\n      jump\t// out\n        /* \"#utility.yul\":1025:1143   */\n    tag_58:\n        /* \"#utility.yul\":1112:1136   */\n      tag_87\n        /* \"#utility.yul\":1130:1135   */\n      dup2\n        /* \"#utility.yul\":1112:1136   */\n      tag_55\n      jump\t// in\n    tag_87:\n        /* \"#utility.yul\":1107:1110   */\n      dup3\n        /* \"#utility.yul\":1100:1137   */\n      mstore\n        /* \"#utility.yul\":1025:1143   */\n      pop\n      pop\n      jump\t// out\n        /* \"#utility.yul\":1149:1371   */\n    tag_14:\n        /* \"#utility.yul\":1242:1246   */\n      0x00\n        /* \"#utility.yul\":1280:1282   */\n      0x20\n        /* \"#utility.yul\":1269:1278   */\n      dup3\n        /* \"#utility.yul\":1265:1283   */\n      add\n        /* \"#utility.yul\":1257:1283   */\n      swap1\n      pop\n        /* \"#utility.yul\":1293:1364   */\n      tag_89\n        /* \"#utility.yul\":1361:1362   */\n      0x00\n        /* \"#utility.yul\":1350:1359   */\n      dup4\n        /* \"#utility.yul\":1346:1363   */\n      add\n        /* \"#utility.yul\":1337:1343   */\n      dup5\n        /* \"#utility.yul\":1293:1364   */\n      tag_58\n      jump\t// in\n    tag_89:\n        /* \"#utility.yul\":1149:1371   */\n      swap3\n      swap2\n      pop\n      pop\n      jump\t// out\n        /* \"#utility.yul\":1377:1503   */\n    tag_59:\n        /* \"#utility.yul\":1414:1421   */\n      0x00\n        /* \"#utility.yul\":1454:1496   */\n      0xffffffffffffffffffffffffffffffffffffffff\n        /* \"#utility.yul\":1447:1452   */\n      dup3\n        /* \"#utility.yul\":1443:1497   */\n      and\n        /* \"#utility.yul\":1432:1497   */\n      swap1\n      pop\n        /* \"#utility.yul\":1377:1503   */\n      swap2\n      swap1\n      pop\n      jump\t// out\n        /* \"#utility.yul\":1509:1605   */\n    tag_60:\n        /* \"#utility.yul\":1546:1553   */\n      0x00\n        /* \"#utility.yul\":1575:1599   */\n      tag_92\n        /* \"#utility.yul\":1593:1598   */\n      dup3\n        /* \"#utility.yul\":1575:1599   */\n      tag_59\n      jump\t// in\n    tag_92:\n        /* \"#utility.yul\":1564:1599   */\n      swap1\n      pop\n        /* \"#utility.yul\":1509:1605   */\n      swap2\n      swap1\n      pop\n      jump\t// out\n        /* \"#utility.yul\":1611:1729   */\n    tag_61:\n        /* \"#utility.yul\":1698:1722   */\n      tag_94\n        /* \"#utility.yul\":1716:1721   */\n      dup2\n        /* \"#utility.yul\":1698:1722   */\n      tag_60\n      jump\t// in\n    tag_94:\n        /* \"#utility.yul\":1693:1696   */\n      dup3\n        /* \"#utility.yul\":1686:1723   */\n      mstore\n        /* \"#utility.yul\":1611:1729   */\n      pop\n      pop\n      jump\t// out\n        /* \"#utility.yul\":1735:1957   */\n    tag_21:\n        /* \"#utility.yul\":1828:1832   */\n      0x00\n        /* \"#utility.yul\":1866:1868   */\n      0x20\n        /* \"#utility.yul\":1855:1864   */\n      dup3\n        /* \"#utility.yul\":1851:1869   */\n      add\n        /* \"#utility.yul\":1843:1869   */\n      swap1\n      pop\n        /* \"#utility.yul\":1879:1950   */\n      tag_96\n        /* \"#utility.yul\":1947:1948   */\n      0x00\n        /* \"#utility.yul\":1936:1945   */\n      dup4\n        /* \"#utility.yul\":1932:1949   */\n      add\n        /* \"#utility.yul\":1923:1929   */\n      dup5\n        /* \"#utility.yul\":1879:1950   */\n      tag_61\n      jump\t// in\n    tag_96:\n        /* \"#utility.yul\":1735:1957   */\n      swap3\n      swap2\n      pop\n      pop\n      jump\t// out\n        /* \"#utility.yul\":1963:2085   */\n    tag_62:\n        /* \"#utility.yul\":2036:2060   */\n      tag_98\n        /* \"#utility.yul\":2054:2059   */\n      dup2\n        /* \"#utility.yul\":2036:2060   */\n      tag_60\n      jump\t// in\n    tag_98:\n        /* \"#utility.yul\":2029:2034   */\n      dup2\n        /* \"#utility.yul\":2026:2061   */\n      eq\n        /* \"#utility.yul\":2016:2079   */\n      tag_99\n      jumpi\n        /* \"#utility.yul\":2075:2076   */\n      0x00\n        /* \"#utility.yul\":2072:2073   */\n      dup1\n        /* \"#utility.yul\":2065:2077   */\n      revert\n        /* \"#utility.yul\":2016:2079   */\n    tag_99:\n        /* \"#utility.yul\":1963:2085   */\n      pop\n      jump\t// out\n        /* \"#utility.yul\":2091:2230   */\n    tag_63:\n        /* \"#utility.yul\":2137:2142   */\n      0x00\n        /* \"#utility.yul\":2175:2181   */\n      dup2\n        /* \"#utility.yul\":2162:2182   */\n      calldataload\n        /* \"#utility.yul\":2153:2182   */\n      swap1\n      pop\n        /* \"#utility.yul\":2191:2224   */\n      tag_101\n        /* \"#utility.yul\":2218:2223   */\n      dup2\n        /* \"#utility.yul\":2191:2224   */\n      tag_62\n      jump\t// in\n    tag_101:\n        /* \"#utility.yul\":2091:2230   */\n      swap3\n      swap2\n      pop\n      pop\n      jump\t// out\n        /* \"#utility.yul\":2236:2565   */\n    tag_29:\n        /* \"#utility.yul\":2295:2301   */\n      0x00\n        /* \"#utility.yul\":2344:2346   */\n      0x20\n        /* \"#utility.yul\":2332:2341   */\n      dup3\n        /* \"#utility.yul\":2323:2330   */\n      dup5\n        /* \"#utility.yul\":2319:2342   */\n      sub\n        /* \"#utility.yul\":2315:2347   */\n      slt\n        /* \"#utility.yul\":2312:2431   */\n      iszero\n      tag_103\n      jumpi\n        /* \"#utility.yul\":2350:2429   */\n      tag_104\n      tag_53\n      jump\t// in\n    tag_104:\n        /* \"#utility.yul\":2312:2431   */\n    tag_103:\n        /* \"#utility.yul\":2470:2471   */\n      0x00\n        /* \"#utility.yul\":2495:2548   */\n      tag_105\n        /* \"#utility.yul\":2540:2547   */\n      dup5\n        /* \"#utility.yul\":2531:2537   */\n      dup3\n        /* \"#utility.yul\":2520:2529   */\n      dup6\n        /* \"#utility.yul\":2516:2538   */\n      add\n        /* \"#utility.yul\":2495:2548   */\n      tag_63\n      jump\t// in\n    tag_105:\n        /* \"#utility.yul\":2485:2548   */\n      swap2\n      pop\n        /* \"#utility.yul\":2441:2558   */\n      pop\n        /* \"#utility.yul\":2236:2565   */\n      swap3\n      swap2\n      pop\n      pop\n      jump\t// out\n        /* \"#utility.yul\":2571:2675   */\n    tag_64:\n        /* \"#utility.yul\":2616:2623   */\n      0x00\n        /* \"#utility.yul\":2645:2669   */\n      tag_107\n        /* \"#utility.yul\":2663:2668   */\n      dup3\n        /* \"#utility.yul\":2645:2669   */\n      tag_59\n      jump\t// in\n    tag_107:\n        /* \"#utility.yul\":2634:2669   */\n      swap1\n      pop\n        /* \"#utility.yul\":2571:2675   */\n      swap2\n      swap1\n      pop\n      jump\t// out\n        /* \"#utility.yul\":2681:2819   */\n    tag_65:\n        /* \"#utility.yul\":2762:2794   */\n      tag_109\n        /* \"#utility.yul\":2788:2793   */\n      dup2\n        /* \"#utility.yul\":2762:2794   */\n      tag_64\n      jump\t// in\n    tag_109:\n        /* \"#utility.yul\":2755:2760   */\n      dup2\n        /* \"#utility.yul\":2752:2795   */\n      eq\n        /* \"#utility.yul\":2742:2813   */\n      tag_110\n      jumpi\n        /* \"#utility.yul\":2809:2810   */\n      0x00\n        /* \"#utility.yul\":2806:2807   */\n      dup1\n        /* \"#utility.yul\":2799:2811   */\n      revert\n        /* \"#utility.yul\":2742:2813   */\n    tag_110:\n        /* \"#utility.yul\":2681:2819   */\n      pop\n      jump\t// out\n        /* \"#utility.yul\":2825:2980   */\n    tag_66:\n        /* \"#utility.yul\":2879:2884   */\n      0x00\n        /* \"#utility.yul\":2917:2923   */\n      dup2\n        /* \"#utility.yul\":2904:2924   */\n      calldataload\n        /* \"#utility.yul\":2895:2924   */\n      swap1\n      pop\n        /* \"#utility.yul\":2933:2974   */\n      tag_112\n        /* \"#utility.yul\":2968:2973   */\n      dup2\n        /* \"#utility.yul\":2933:2974   */\n      tag_65\n      jump\t// in\n    tag_112:\n        /* \"#utility.yul\":2825:2980   */\n      swap3\n      swap2\n      pop\n      pop\n      jump\t// out\n        /* \"#utility.yul\":2986:3476   */\n    tag_35:\n        /* \"#utility.yul\":3062:3068   */\n      0x00\n        /* \"#utility.yul\":3070:3076   */\n      dup1\n        /* \"#utility.yul\":3119:3121   */\n      0x40\n        /* \"#utility.yul\":3107:3116   */\n      dup4\n        /* \"#utility.yul\":3098:3105   */\n      dup6\n        /* \"#utility.yul\":3094:3117   */\n      sub\n        /* \"#utility.yul\":3090:3122   */\n      slt\n        /* \"#utility.yul\":3087:3206   */\n      iszero\n      tag_114\n      jumpi\n        /* \"#utility.yul\":3125:3204   */\n      tag_115\n      tag_53\n      jump\t// in\n    tag_115:\n        /* \"#utility.yul\":3087:3206   */\n    tag_114:\n        /* \"#utility.yul\":3245:3246   */\n      0x00\n        /* \"#utility.yul\":3270:3331   */\n      tag_116\n        /* \"#utility.yul\":3323:3330   */\n      dup6\n        /* \"#utility.yul\":3314:3320   */\n      dup3\n        /* \"#utility.yul\":3303:3312   */\n      dup7\n        /* \"#utility.yul\":3299:3321   */\n      add\n        /* \"#utility.yul\":3270:3331   */\n      tag_66\n      jump\t// in\n    tag_116:\n        /* \"#utility.yul\":3260:3331   */\n      swap3\n      pop\n        /* \"#utility.yul\":3216:3341   */\n      pop\n        /* \"#utility.yul\":3380:3382   */\n      0x20\n        /* \"#utility.yul\":3406:3459   */\n      tag_117\n        /* \"#utility.yul\":3451:3458   */\n      dup6\n        /* \"#utility.yul\":3442:3448   */\n      dup3\n        /* \"#utility.yul\":3431:3440   */\n      dup7\n        /* \"#utility.yul\":3427:3449   */\n      add\n        /* \"#utility.yul\":3406:3459   */\n      tag_57\n      jump\t// in\n    tag_117:\n        /* \"#utility.yul\":3396:3459   */\n      swap2\n      pop\n        /* \"#utility.yul\":3351:3469   */\n      pop\n        /* \"#utility.yul\":2986:3476   */\n      swap3\n      pop\n      swap3\n      swap1\n      pop\n      jump\t// out\n        /* \"#utility.yul\":3482:3662   */\n    tag_67:\n        /* \"#utility.yul\":3530:3607   */\n      0x4e487b7100000000000000000000000000000000000000000000000000000000\n        /* \"#utility.yul\":3527:3528   */\n      0x00\n        /* \"#utility.yul\":3520:3608   */\n      mstore\n        /* \"#utility.yul\":3627:3631   */\n      0x12\n        /* \"#utility.yul\":3624:3625   */\n      0x04\n        /* \"#utility.yul\":3617:3632   */\n      mstore\n        /* \"#utility.yul\":3651:3655   */\n      0x24\n        /* \"#utility.yul\":3648:3649   */\n      0x00\n        /* \"#utility.yul\":3641:3656   */\n      revert\n        /* \"#utility.yul\":3668:3848   */\n    tag_68:\n        /* \"#utility.yul\":3716:3793   */\n      0x4e487b7100000000000000000000000000000000000000000000000000000000\n        /* \"#utility.yul\":3713:3714   */\n      0x00\n        /* \"#utility.yul\":3706:3794   */\n      mstore\n        /* \"#utility.yul\":3813:3817   */\n      0x11\n        /* \"#utility.yul\":3810:3811   */\n      0x04\n        /* \"#utility.yul\":3803:3818   */\n      mstore\n        /* \"#utility.yul\":3837:3841   */\n      0x24\n        /* \"#utility.yul\":3834:3835   */\n      0x00\n        /* \"#utility.yul\":3827:3842   */\n      revert\n        /* \"#utility.yul\":3854:4039   */\n    tag_39:\n        /* \"#utility.yul\":3894:3895   */\n      0x00\n        /* \"#utility.yul\":3911:3931   */\n      tag_121\n        /* \"#utility.yul\":3929:3930   */\n      dup3\n        /* \"#utility.yul\":3911:3931   */\n      tag_55\n      jump\t// in\n    tag_121:\n        /* \"#utility.yul\":3906:3931   */\n      swap2\n      pop\n        /* \"#utility.yul\":3945:3965   */\n      tag_122\n        /* \"#utility.yul\":3963:3964   */\n      dup4\n        /* \"#utility.yul\":3945:3965   */\n      tag_55\n      jump\t// in\n    tag_122:\n        /* \"#utility.yul\":3940:3965   */\n      swap3\n      pop\n        /* \"#utility.yul\":3984:3985   */\n      dup3\n        /* \"#utility.yul\":3974:4009   */\n      tag_123\n      jumpi\n        /* \"#utility.yul\":3989:4007   */\n      tag_124\n      tag_67\n      jump\t// in\n    tag_124:\n        /* \"#utility.yul\":3974:4009   */\n    tag_123:\n        /* \"#utility.yul\":4031:4032   */\n      dup3\n        /* \"#utility.yul\":4028:4029   */\n      dup3\n        /* \"#utility.yul\":4024:4033   */\n      div\n        /* \"#utility.yul\":4019:4033   */\n      swap1\n      pop\n        /* \"#utility.yul\":3854:4039   */\n      swap3\n      swap2\n      pop\n      pop\n      jump\t// out\n        /* \"#utility.yul\":4045:4236   */\n    tag_42:\n        /* \"#utility.yul\":4085:4088   */\n      0x00\n        /* \"#utility.yul\":4104:4124   */\n      tag_126\n        /* \"#utility.yul\":4122:4123   */\n      dup3\n        /* \"#utility.yul\":4104:4124   */\n      tag_55\n      jump\t// in\n    tag_126:\n        /* \"#utility.yul\":4099:4124   */\n      swap2\n      pop\n        /* \"#utility.yul\":4138:4158   */\n      tag_127\n        /* \"#utility.yul\":4156:4157   */\n      dup4\n        /* \"#utility.yul\":4138:4158   */\n      tag_55\n      jump\t// in\n    tag_127:\n        /* \"#utility.yul\":4133:4158   */\n      swap3\n      pop\n        /* \"#utility.yul\":4181:4182   */\n      dup3\n        /* \"#utility.yul\":4178:4179   */\n      dup3\n        /* \"#utility.yul\":4174:4183   */\n      add\n        /* \"#utility.yul\":4167:4183   */\n      swap1\n      pop\n        /* \"#utility.yul\":4202:4205   */\n      dup1\n        /* \"#utility.yul\":4199:4200   */\n      dup3\n        /* \"#utility.yul\":4196:4206   */\n      gt\n        /* \"#utility.yul\":4193:4229   */\n      iszero\n      tag_128\n      jumpi\n        /* \"#utility.yul\":4209:4227   */\n      tag_129\n      tag_68\n      jump\t// in\n    tag_129:\n        /* \"#utility.yul\":4193:4229   */\n    tag_128:\n        /* \"#utility.yul\":4045:4236   */\n      swap3\n      swap2\n      pop\n      pop\n      jump\t// out\n        /* \"#utility.yul\":4242:4411   */\n    tag_69:\n        /* \"#utility.yul\":4326:4337   */\n      0x00\n        /* \"#utility.yul\":4360:4366   */\n      dup3\n        /* \"#utility.yul\":4355:4358   */\n      dup3\n        /* \"#utility.yul\":4348:4367   */\n      mstore\n        /* \"#utility.yul\":4400:4404   */\n      0x20\n        /* \"#utility.yul\":4395:4398   */\n      dup3\n        /* \"#utility.yul\":4391:4405   */\n      add\n        /* \"#utility.yul\":4376:4405   */\n      swap1\n      pop\n        /* \"#utility.yul\":4242:4411   */\n      swap3\n      swap2\n      pop\n      pop\n      jump\t// out\n        /* \"#utility.yul\":4417:4584   */\n    tag_70:\n        /* \"#utility.yul\":4557:4576   */\n      0x206e6f7420656e6f7567682066756e6473000000000000000000000000000000\n        /* \"#utility.yul\":4553:4554   */\n      0x00\n        /* \"#utility.yul\":4545:4551   */\n      dup3\n        /* \"#utility.yul\":4541:4555   */\n      add\n        /* \"#utility.yul\":4534:4577   */\n      mstore\n        /* \"#utility.yul\":4417:4584   */\n      pop\n      jump\t// out\n        /* \"#utility.yul\":4590:4956   */\n    tag_71:\n        /* \"#utility.yul\":4732:4735   */\n      0x00\n        /* \"#utility.yul\":4753:4820   */\n      tag_133\n        /* \"#utility.yul\":4817:4819   */\n      0x11\n        /* \"#utility.yul\":4812:4815   */\n      dup4\n        /* \"#utility.yul\":4753:4820   */\n      tag_69\n      jump\t// in\n    tag_133:\n        /* \"#utility.yul\":4746:4820   */\n      swap2\n      pop\n        /* \"#utility.yul\":4829:4922   */\n      tag_134\n        /* \"#utility.yul\":4918:4921   */\n      dup3\n        /* \"#utility.yul\":4829:4922   */\n      tag_70\n      jump\t// in\n    tag_134:\n        /* \"#utility.yul\":4947:4949   */\n      0x20\n        /* \"#utility.yul\":4942:4945   */\n      dup3\n        /* \"#utility.yul\":4938:4950   */\n      add\n        /* \"#utility.yul\":4931:4950   */\n      swap1\n      pop\n        /* \"#utility.yul\":4590:4956   */\n      swap2\n      swap1\n      pop\n      jump\t// out\n        /* \"#utility.yul\":4962:5381   */\n    tag_47:\n        /* \"#utility.yul\":5128:5132   */\n      0x00\n        /* \"#utility.yul\":5166:5168   */\n      0x20\n        /* \"#utility.yul\":5155:5164   */\n      dup3\n        /* \"#utility.yul\":5151:5169   */\n      add\n        /* \"#utility.yul\":5143:5169   */\n      swap1\n      pop\n        /* \"#utility.yul\":5215:5224   */\n      dup2\n        /* \"#utility.yul\":5209:5213   */\n      dup2\n        /* \"#utility.yul\":5205:5225   */\n      sub\n        /* \"#utility.yul\":5201:5202   */\n      0x00\n        /* \"#utility.yul\":5190:5199   */\n      dup4\n        /* \"#utility.yul\":5186:5203   */\n      add\n        /* \"#utility.yul\":5179:5226   */\n      mstore\n        /* \"#utility.yul\":5243:5374   */\n      tag_136\n        /* \"#utility.yul\":5369:5373   */\n      dup2\n        /* \"#utility.yul\":5243:5374   */\n      tag_71\n      jump\t// in\n    tag_136:\n        /* \"#utility.yul\":5235:5374   */\n      swap1\n      pop\n        /* \"#utility.yul\":4962:5381   */\n      swap2\n      swap1\n      pop\n      jump\t// out\n        /* \"#utility.yul\":5387:5581   */\n    tag_49:\n        /* \"#utility.yul\":5427:5431   */\n      0x00\n        /* \"#utility.yul\":5447:5467   */\n      tag_138\n        /* \"#utility.yul\":5465:5466   */\n      dup3\n        /* \"#utility.yul\":5447:5467   */\n      tag_55\n      jump\t// in\n    tag_138:\n        /* \"#utility.yul\":5442:5467   */\n      swap2\n      pop\n        /* \"#utility.yul\":5481:5501   */\n      tag_139\n        /* \"#utility.yul\":5499:5500   */\n      dup4\n        /* \"#utility.yul\":5481:5501   */\n      tag_55\n      jump\t// in\n    tag_139:\n        /* \"#utility.yul\":5476:5501   */\n      swap3\n      pop\n        /* \"#utility.yul\":5525:5526   */\n      dup3\n        /* \"#utility.yul\":5522:5523   */\n      dup3\n        /* \"#utility.yul\":5518:5527   */\n      sub\n        /* \"#utility.yul\":5510:5527   */\n      swap1\n      pop\n        /* \"#utility.yul\":5549:5550   */\n      dup2\n        /* \"#utility.yul\":5543:5547   */\n      dup2\n        /* \"#utility.yul\":5540:5551   */\n      gt\n        /* \"#utility.yul\":5537:5574   */\n      iszero\n      tag_140\n      jumpi\n        /* \"#utility.yul\":5554:5572   */\n      tag_141\n      tag_68\n      jump\t// in\n    tag_141:\n        /* \"#utility.yul\":5537:5574   */\n    tag_140:\n        /* \"#utility.yul\":5387:5581   */\n      swap3\n      swap2\n      pop\n      pop\n      jump\t// out\n\n    auxdata: 0xa264697066735822122050b5341c618fb7bbf9a56a0b60e55c850a293ac6817dce902ed6f88006eea4fe64736f6c634300081a0033\n}\n",
				"bytecode": {
					"linkReferences": {},
					"object": "6080604052348015600e575f80fd5b503360015f6101000a81548173ffffffffffffffffffffffffffffffffffffffff021916908373ffffffffffffffffffffffffffffffffffffffff16021790555061068e8061005c5f395ff3fe608060405260043610610054575f3560e01c8063395a60631461005857806377fac48314610094578063893d20e81461009e5780638da5cb5b146100c8578063d18a42e1146100f2578063f274c8971461012e575b5f80fd5b348015610063575f80fd5b5061007e60048036038101906100799190610377565b610156565b60405161008b91906103b1565b60405180910390f35b61009c610172565b005b3480156100a9575f80fd5b506100b26101c6565b6040516100bf9190610409565b60405180910390f35b3480156100d3575f80fd5b506100dc6101ee565b6040516100e99190610409565b60405180910390f35b3480156100fd575f80fd5b506101186004803603810190610113919061044c565b610213565b60405161012591906103b1565b60405180910390f35b348015610139575f80fd5b50610154600480360381019061014f91906104b2565b610227565b005b5f670de0b6b3a76400008261016b919061054a565b9050919050565b345f803373ffffffffffffffffffffffffffffffffffffffff1673ffffffffffffffffffffffffffffffffffffffff1681526020019081526020015f205f8282546101bd919061057a565b92505081905550565b5f60015f9054906101000a900473ffffffffffffffffffffffffffffffffffffffff16905090565b60015f9054906101000a900473ffffffffffffffffffffffffffffffffffffffff1681565b5f602052805f5260405f205f915090505481565b805f803373ffffffffffffffffffffffffffffffffffffffff1673ffffffffffffffffffffffffffffffffffffffff1681526020019081526020015f205410156102a6576040517f08c379a000000000000000000000000000000000000000000000000000000000815260040161029d90610607565b60405180910390fd5b805f803373ffffffffffffffffffffffffffffffffffffffff1673ffffffffffffffffffffffffffffffffffffffff1681526020019081526020015f205f8282546102f19190610625565b925050819055508173ffffffffffffffffffffffffffffffffffffffff166108fc8290811502906040515f60405180830381858888f1935050505015801561033b573d5f803e3d5ffd5b505050565b5f80fd5b5f819050919050565b61035681610344565b8114610360575f80fd5b50565b5f813590506103718161034d565b92915050565b5f6020828403121561038c5761038b610340565b5b5f61039984828501610363565b91505092915050565b6103ab81610344565b82525050565b5f6020820190506103c45f8301846103a2565b92915050565b5f73ffffffffffffffffffffffffffffffffffffffff82169050919050565b5f6103f3826103ca565b9050919050565b610403816103e9565b82525050565b5f60208201905061041c5f8301846103fa565b92915050565b61042b816103e9565b8114610435575f80fd5b50565b5f8135905061044681610422565b92915050565b5f6020828403121561046157610460610340565b5b5f61046e84828501610438565b91505092915050565b5f610481826103ca565b9050919050565b61049181610477565b811461049b575f80fd5b50565b5f813590506104ac81610488565b92915050565b5f80604083850312156104c8576104c7610340565b5b5f6104d58582860161049e565b92505060206104e685828601610363565b9150509250929050565b7f4e487b71000000000000000000000000000000000000000000000000000000005f52601260045260245ffd5b7f4e487b71000000000000000000000000000000000000000000000000000000005f52601160045260245ffd5b5f61055482610344565b915061055f83610344565b92508261056f5761056e6104f0565b5b828204905092915050565b5f61058482610344565b915061058f83610344565b92508282019050808211156105a7576105a661051d565b5b92915050565b5f82825260208201905092915050565b7f206e6f7420656e6f7567682066756e64730000000000000000000000000000005f82015250565b5f6105f16011836105ad565b91506105fc826105bd565b602082019050919050565b5f6020820190508181035f83015261061e816105e5565b9050919050565b5f61062f82610344565b915061063a83610344565b92508282039050818111156106525761065161051d565b5b9291505056fea264697066735822122050b5341c618fb7bbf9a56a0b60e55c850a293ac6817dce902ed6f88006eea4fe64736f6c634300081a0033",
					"opcodes": "PUSH1 0x80 PUSH1 0x40 MSTORE CALLVALUE DUP1 ISZERO PUSH1 0xE JUMPI PUSH0 DUP1 REVERT JUMPDEST POP CALLER PUSH1 0x1 PUSH0 PUSH2 0x100 EXP DUP2 SLOAD DUP2 PUSH20 0xFFFFFFFFFFFFFFFFFFFFFFFFFFFFFFFFFFFFFFFF MUL NOT AND SWAP1 DUP4 PUSH20 0xFFFFFFFFFFFFFFFFFFFFFFFFFFFFFFFFFFFFFFFF AND MUL OR SWAP1 SSTORE POP PUSH2 0x68E DUP1 PUSH2 0x5C PUSH0 CODECOPY PUSH0 RETURN INVALID PUSH1 0x80 PUSH1 0x40 MSTORE PUSH1 0x4 CALLDATASIZE LT PUSH2 0x54 JUMPI PUSH0 CALLDATALOAD PUSH1 0xE0 SHR DUP1 PUSH4 0x395A6063 EQ PUSH2 0x58 JUMPI DUP1 PUSH4 0x77FAC483 EQ PUSH2 0x94 JUMPI DUP1 PUSH4 0x893D20E8 EQ PUSH2 0x9E JUMPI DUP1 PUSH4 0x8DA5CB5B EQ PUSH2 0xC8 JUMPI DUP1 PUSH4 0xD18A42E1 EQ PUSH2 0xF2 JUMPI DUP1 PUSH4 0xF274C897 EQ PUSH2 0x12E JUMPI JUMPDEST PUSH0 DUP1 REVERT JUMPDEST CALLVALUE DUP1 ISZERO PUSH2 0x63 JUMPI PUSH0 DUP1 REVERT JUMPDEST POP PUSH2 0x7E PUSH1 0x4 DUP1 CALLDATASIZE SUB DUP2 ADD SWAP1 PUSH2 0x79 SWAP2 SWAP1 PUSH2 0x377 JUMP JUMPDEST PUSH2 0x156 JUMP JUMPDEST PUSH1 0x40 MLOAD PUSH2 0x8B SWAP2 SWAP1 PUSH2 0x3B1 JUMP JUMPDEST PUSH1 0x40 MLOAD DUP1 SWAP2 SUB SWAP1 RETURN JUMPDEST PUSH2 0x9C PUSH2 0x172 JUMP JUMPDEST STOP JUMPDEST CALLVALUE DUP1 ISZERO PUSH2 0xA9 JUMPI PUSH0 DUP1 REVERT JUMPDEST POP PUSH2 0xB2 PUSH2 0x1C6 JUMP JUMPDEST PUSH1 0x40 MLOAD PUSH2 0xBF SWAP2 SWAP1 PUSH2 0x409 JUMP JUMPDEST PUSH1 0x40 MLOAD DUP1 SWAP2 SUB SWAP1 RETURN JUMPDEST CALLVALUE DUP1 ISZERO PUSH2 0xD3 JUMPI PUSH0 DUP1 REVERT JUMPDEST POP PUSH2 0xDC PUSH2 0x1EE JUMP JUMPDEST PUSH1 0x40 MLOAD PUSH2 0xE9 SWAP2 SWAP1 PUSH2 0x409 JUMP JUMPDEST PUSH1 0x40 MLOAD DUP1 SWAP2 SUB SWAP1 RETURN JUMPDEST CALLVALUE DUP1 ISZERO PUSH2 0xFD JUMPI PUSH0 DUP1 REVERT JUMPDEST POP PUSH2 0x118 PUSH1 0x4 DUP1 CALLDATASIZE SUB DUP2 ADD SWAP1 PUSH2 0x113 SWAP2 SWAP1 PUSH2 0x44C JUMP JUMPDEST PUSH2 0x213 JUMP JUMPDEST PUSH1 0x40 MLOAD PUSH2 0x125 SWAP2 SWAP1 PUSH2 0x3B1 JUMP JUMPDEST PUSH1 0x40 MLOAD DUP1 SWAP2 SUB SWAP1 RETURN JUMPDEST CALLVALUE DUP1 ISZERO PUSH2 0x139 JUMPI PUSH0 DUP1 REVERT JUMPDEST POP PUSH2 0x154 PUSH1 0x4 DUP1 CALLDATASIZE SUB DUP2 ADD SWAP1 PUSH2 0x14F SWAP2 SWAP1 PUSH2 0x4B2 JUMP JUMPDEST PUSH2 0x227 JUMP JUMPDEST STOP JUMPDEST PUSH0 PUSH8 0xDE0B6B3A7640000 DUP3 PUSH2 0x16B SWAP2 SWAP1 PUSH2 0x54A JUMP JUMPDEST SWAP1 POP SWAP2 SWAP1 POP JUMP JUMPDEST CALLVALUE PUSH0 DUP1 CALLER PUSH20 0xFFFFFFFFFFFFFFFFFFFFFFFFFFFFFFFFFFFFFFFF AND PUSH20 0xFFFFFFFFFFFFFFFFFFFFFFFFFFFFFFFFFFFFFFFF AND DUP2 MSTORE PUSH1 0x20 ADD SWAP1 DUP2 MSTORE PUSH1 0x20 ADD PUSH0 KECCAK256 PUSH0 DUP3 DUP3 SLOAD PUSH2 0x1BD SWAP2 SWAP1 PUSH2 0x57A JUMP JUMPDEST SWAP3 POP POP DUP2 SWAP1 SSTORE POP JUMP JUMPDEST PUSH0 PUSH1 0x1 PUSH0 SWAP1 SLOAD SWAP1 PUSH2 0x100 EXP SWAP1 DIV PUSH20 0xFFFFFFFFFFFFFFFFFFFFFFFFFFFFFFFFFFFFFFFF AND SWAP1 POP SWAP1 JUMP JUMPDEST PUSH1 0x1 PUSH0 SWAP1 SLOAD SWAP1 PUSH2 0x100 EXP SWAP1 DIV PUSH20 0xFFFFFFFFFFFFFFFFFFFFFFFFFFFFFFFFFFFFFFFF AND DUP2 JUMP JUMPDEST PUSH0 PUSH1 0x20 MSTORE DUP1 PUSH0 MSTORE PUSH1 0x40 PUSH0 KECCAK256 PUSH0 SWAP2 POP SWAP1 POP SLOAD DUP2 JUMP JUMPDEST DUP1 PUSH0 DUP1 CALLER PUSH20 0xFFFFFFFFFFFFFFFFFFFFFFFFFFFFFFFFFFFFFFFF AND PUSH20 0xFFFFFFFFFFFFFFFFFFFFFFFFFFFFFFFFFFFFFFFF AND DUP2 MSTORE PUSH1 0x20 ADD SWAP1 DUP2 MSTORE PUSH1 0x20 ADD PUSH0 KECCAK256 SLOAD LT ISZERO PUSH2 0x2A6 JUMPI PUSH1 0x40 MLOAD PUSH32 0x8C379A000000000000000000000000000000000000000000000000000000000 DUP2 MSTORE PUSH1 0x4 ADD PUSH2 0x29D SWAP1 PUSH2 0x607 JUMP JUMPDEST PUSH1 0x40 MLOAD DUP1 SWAP2 SUB SWAP1 REVERT JUMPDEST DUP1 PUSH0 DUP1 CALLER PUSH20 0xFFFFFFFFFFFFFFFFFFFFFFFFFFFFFFFFFFFFFFFF AND PUSH20 0xFFFFFFFFFFFFFFFFFFFFFFFFFFFFFFFFFFFFFFFF AND DUP2 MSTORE PUSH1 0x20 ADD SWAP1 DUP2 MSTORE PUSH1 0x20 ADD PUSH0 KECCAK256 PUSH0 DUP3 DUP3 SLOAD PUSH2 0x2F1 SWAP2 SWAP1 PUSH2 0x625 JUMP JUMPDEST SWAP3 POP POP DUP2 SWAP1 SSTORE POP DUP2 PUSH20 0xFFFFFFFFFFFFFFFFFFFFFFFFFFFFFFFFFFFFFFFF AND PUSH2 0x8FC DUP3 SWAP1 DUP2 ISZERO MUL SWAP1 PUSH1 0x40 MLOAD PUSH0 PUSH1 0x40 MLOAD DUP1 DUP4 SUB DUP2 DUP6 DUP9 DUP9 CALL SWAP4 POP POP POP POP ISZERO DUP1 ISZERO PUSH2 0x33B JUMPI RETURNDATASIZE PUSH0 DUP1 RETURNDATACOPY RETURNDATASIZE PUSH0 REVERT JUMPDEST POP POP POP JUMP JUMPDEST PUSH0 DUP1 REVERT JUMPDEST PUSH0 DUP2 SWAP1 POP SWAP2 SWAP1 POP JUMP JUMPDEST PUSH2 0x356 DUP2 PUSH2 0x344 JUMP JUMPDEST DUP2 EQ PUSH2 0x360 JUMPI PUSH0 DUP1 REVERT JUMPDEST POP JUMP JUMPDEST PUSH0 DUP2 CALLDATALOAD SWAP1 POP PUSH2 0x371 DUP2 PUSH2 0x34D JUMP JUMPDEST SWAP3 SWAP2 POP POP JUMP JUMPDEST PUSH0 PUSH1 0x20 DUP3 DUP5 SUB SLT ISZERO PUSH2 0x38C JUMPI PUSH2 0x38B PUSH2 0x340 JUMP JUMPDEST JUMPDEST PUSH0 PUSH2 0x399 DUP5 DUP3 DUP6 ADD PUSH2 0x363 JUMP JUMPDEST SWAP2 POP POP SWAP3 SWAP2 POP POP JUMP JUMPDEST PUSH2 0x3AB DUP2 PUSH2 0x344 JUMP JUMPDEST DUP3 MSTORE POP POP JUMP JUMPDEST PUSH0 PUSH1 0x20 DUP3 ADD SWAP1 POP PUSH2 0x3C4 PUSH0 DUP4 ADD DUP5 PUSH2 0x3A2 JUMP JUMPDEST SWAP3 SWAP2 POP POP JUMP JUMPDEST PUSH0 PUSH20 0xFFFFFFFFFFFFFFFFFFFFFFFFFFFFFFFFFFFFFFFF DUP3 AND SWAP1 POP SWAP2 SWAP1 POP JUMP JUMPDEST PUSH0 PUSH2 0x3F3 DUP3 PUSH2 0x3CA JUMP JUMPDEST SWAP1 POP SWAP2 SWAP1 POP JUMP JUMPDEST PUSH2 0x403 DUP2 PUSH2 0x3E9 JUMP JUMPDEST DUP3 MSTORE POP POP JUMP JUMPDEST PUSH0 PUSH1 0x20 DUP3 ADD SWAP1 POP PUSH2 0x41C PUSH0 DUP4 ADD DUP5 PUSH2 0x3FA JUMP JUMPDEST SWAP3 SWAP2 POP POP JUMP JUMPDEST PUSH2 0x42B DUP2 PUSH2 0x3E9 JUMP JUMPDEST DUP2 EQ PUSH2 0x435 JUMPI PUSH0 DUP1 REVERT JUMPDEST POP JUMP JUMPDEST PUSH0 DUP2 CALLDATALOAD SWAP1 POP PUSH2 0x446 DUP2 PUSH2 0x422 JUMP JUMPDEST SWAP3 SWAP2 POP POP JUMP JUMPDEST PUSH0 PUSH1 0x20 DUP3 DUP5 SUB SLT ISZERO PUSH2 0x461 JUMPI PUSH2 0x460 PUSH2 0x340 JUMP JUMPDEST JUMPDEST PUSH0 PUSH2 0x46E DUP5 DUP3 DUP6 ADD PUSH2 0x438 JUMP JUMPDEST SWAP2 POP POP SWAP3 SWAP2 POP POP JUMP JUMPDEST PUSH0 PUSH2 0x481 DUP3 PUSH2 0x3CA JUMP JUMPDEST SWAP1 POP SWAP2 SWAP1 POP JUMP JUMPDEST PUSH2 0x491 DUP2 PUSH2 0x477 JUMP JUMPDEST DUP2 EQ PUSH2 0x49B JUMPI PUSH0 DUP1 REVERT JUMPDEST POP JUMP JUMPDEST PUSH0 DUP2 CALLDATALOAD SWAP1 POP PUSH2 0x4AC DUP2 PUSH2 0x488 JUMP JUMPDEST SWAP3 SWAP2 POP POP JUMP JUMPDEST PUSH0 DUP1 PUSH1 0x40 DUP4 DUP6 SUB SLT ISZERO PUSH2 0x4C8 JUMPI PUSH2 0x4C7 PUSH2 0x340 JUMP JUMPDEST JUMPDEST PUSH0 PUSH2 0x4D5 DUP6 DUP3 DUP7 ADD PUSH2 0x49E JUMP JUMPDEST SWAP3 POP POP PUSH1 0x20 PUSH2 0x4E6 DUP6 DUP3 DUP7 ADD PUSH2 0x363 JUMP JUMPDEST SWAP2 POP POP SWAP3 POP SWAP3 SWAP1 POP JUMP JUMPDEST PUSH32 0x4E487B7100000000000000000000000000000000000000000000000000000000 PUSH0 MSTORE PUSH1 0x12 PUSH1 0x4 MSTORE PUSH1 0x24 PUSH0 REVERT JUMPDEST PUSH32 0x4E487B7100000000000000000000000000000000000000000000000000000000 PUSH0 MSTORE PUSH1 0x11 PUSH1 0x4 MSTORE PUSH1 0x24 PUSH0 REVERT JUMPDEST PUSH0 PUSH2 0x554 DUP3 PUSH2 0x344 JUMP JUMPDEST SWAP2 POP PUSH2 0x55F DUP4 PUSH2 0x344 JUMP JUMPDEST SWAP3 POP DUP3 PUSH2 0x56F JUMPI PUSH2 0x56E PUSH2 0x4F0 JUMP JUMPDEST JUMPDEST DUP3 DUP3 DIV SWAP1 POP SWAP3 SWAP2 POP POP JUMP JUMPDEST PUSH0 PUSH2 0x584 DUP3 PUSH2 0x344 JUMP JUMPDEST SWAP2 POP PUSH2 0x58F DUP4 PUSH2 0x344 JUMP JUMPDEST SWAP3 POP DUP3 DUP3 ADD SWAP1 POP DUP1 DUP3 GT ISZERO PUSH2 0x5A7 JUMPI PUSH2 0x5A6 PUSH2 0x51D JUMP JUMPDEST JUMPDEST SWAP3 SWAP2 POP POP JUMP JUMPDEST PUSH0 DUP3 DUP3 MSTORE PUSH1 0x20 DUP3 ADD SWAP1 POP SWAP3 SWAP2 POP POP JUMP JUMPDEST PUSH32 0x206E6F7420656E6F7567682066756E6473000000000000000000000000000000 PUSH0 DUP3 ADD MSTORE POP JUMP JUMPDEST PUSH0 PUSH2 0x5F1 PUSH1 0x11 DUP4 PUSH2 0x5AD JUMP JUMPDEST SWAP2 POP PUSH2 0x5FC DUP3 PUSH2 0x5BD JUMP JUMPDEST PUSH1 0x20 DUP3 ADD SWAP1 POP SWAP2 SWAP1 POP JUMP JUMPDEST PUSH0 PUSH1 0x20 DUP3 ADD SWAP1 POP DUP2 DUP2 SUB PUSH0 DUP4 ADD MSTORE PUSH2 0x61E DUP2 PUSH2 0x5E5 JUMP JUMPDEST SWAP1 POP SWAP2 SWAP1 POP JUMP JUMPDEST PUSH0 PUSH2 0x62F DUP3 PUSH2 0x344 JUMP JUMPDEST SWAP2 POP PUSH2 0x63A DUP4 PUSH2 0x344 JUMP JUMPDEST SWAP3 POP DUP3 DUP3 SUB SWAP1 POP DUP2 DUP2 GT ISZERO PUSH2 0x652 JUMPI PUSH2 0x651 PUSH2 0x51D JUMP JUMPDEST JUMPDEST SWAP3 SWAP2 POP POP JUMP INVALID LOG2 PUSH5 0x6970667358 0x22 SLT KECCAK256 POP 0xB5 CALLVALUE SHR PUSH2 0x8FB7 0xBB 0xF9 0xA5 PUSH11 0xB60E55C850A293AC6817D 0xCE SWAP1 0x2E 0xD6 0xF8 DUP1 MOD 0xEE LOG4 INVALID PUSH5 0x736F6C6343 STOP ADDMOD BYTE STOP CALLER "
				},
				"gasEstimates": {
					"creation": {
						"codeDepositCost": "335600",
						"executionCost": "24637",
						"totalCost": "360237"
					},
					"external": {
						"balanceReceived(address)": "2867",
						"convertWeiToEther(uint256)": "infinite",
						"getOwner()": "2537",
						"owner()": "2552",
						"receivedMoney()": "infinite",
						"withdrawMoney(address,uint256)": "infinite"
					}
				},
				"methodIdentifiers": {
					"balanceReceived(address)": "d18a42e1",
					"convertWeiToEther(uint256)": "395a6063",
					"getOwner()": "893d20e8",
					"owner()": "8da5cb5b",
					"receivedMoney()": "77fac483",
					"withdrawMoney(address,uint256)": "f274c897"
				}
			},
			"storageLayout": {
				"storage": [
					{
						"astId": 5,
						"contract": "contracts/constructor_Example.sol:ConstructorExample",
						"label": "balanceReceived",
						"offset": 0,
						"slot": "0",
						"type": "t_mapping(t_address,t_uint256)"
					},
					{
						"astId": 7,
						"contract": "contracts/constructor_Example.sol:ConstructorExample",
						"label": "owner",
						"offset": 0,
						"slot": "1",
						"type": "t_address"
					}
				],
				"types": {
					"t_address": {
						"encoding": "inplace",
						"label": "address",
						"numberOfBytes": "20"
					},
					"t_mapping(t_address,t_uint256)": {
						"encoding": "mapping",
						"key": "t_address",
						"label": "mapping(address => uint256)",
						"numberOfBytes": "32",
						"value": "t_uint256"
					},
					"t_uint256": {
						"encoding": "inplace",
						"label": "uint256",
						"numberOfBytes": "32"
					}
				}
			},
			"userdoc": {
				"kind": "user",
				"methods": {},
				"version": 1
			}
		}
	}
}